{
  "transactions": [
    {
      "hash": "0xbed168cccca6c7d95ed897765c5f4b4d7955d29370e73deb5bb312bf0e255320",
      "transactionType": "CREATE",
      "contractName": "PbVelo",
      "contractAddress": "0xB7957FE76c2fEAe66B57CF3191aFD26d99EC5599",
      "function": null,
      "arguments": null,
      "transaction": {
        "type": "0x00",
        "from": "0x2c10ac0e6b6c1619f4976b2ba559135bfef53c5e",
        "gas": "0x5317d5",
        "value": "0x0",
        "data": "0x60a06040523060805234801561001457600080fd5b50608051614ad761004c600039600081816106250152818161066e015281816112f10152818161133101526114570152614ad76000f3fe6080604052600436106101e75760003560e01c8063715018a611610102578063bd244af411610095578063d21220a711610064578063d21220a7146105a5578063f0f44260146105c6578063f2905826146105e6578063f2fde38b146105fb57600080fd5b8063bd244af41461053d578063c0c53b8b14610552578063c671062914610572578063ce88b4391461059257600080fd5b8063b1a41085116100d1578063b1a41085146104d1578063b5c5f672146104e8578063ba63301714610508578063bac152031461052857600080fd5b8063715018a6146104685780638da5cb5b1461047d578063a20a4cb41461049b578063a6f19c84146104b057600080fd5b80634e71d92d1161017a5780635c975abb116101495780635c975abb146103f95780635fcbd28514610411578063616094a71461043257806361d027b31461044757600080fd5b80634e71d92d1461039c5780634f1ef286146103b15780634fefd8b5146103c457806352d1902d146103e457600080fd5b80633659cfe6116101b65780633659cfe61461030b578063439766ce1461032d5780634641257d14610342578063477348921461035757600080fd5b80630dfe1681146101f35780631959a00214610231578063228cb7331461027b57806322be3de1146102d957600080fd5b366101ee57005b600080fd5b3480156101ff57600080fd5b5061012d54610214906001600160a01b031681565b6040516001600160a01b0390911681526020015b60405180910390f35b34801561023d57600080fd5b5061026661024c3660046140da565b610137602052600090815260409020805460019091015482565b60408051928352602083019190915201610228565b34801561028757600080fd5b50610133546101345461013554610136546102ae936001600160a01b039081169316919084565b604080516001600160a01b039586168152949093166020850152918301526060820152608001610228565b3480156102e557600080fd5b50610130546102fb90600160a01b900460ff1681565b6040519015158152602001610228565b34801561031757600080fd5b5061032b6103263660046140da565b61061b565b005b34801561033957600080fd5b5061032b610703565b34801561034e57600080fd5b5061032b610715565b34801561036357600080fd5b5061038e6103723660046140da565b6001600160a01b03166000908152610137602052604090205490565b604051908152602001610228565b3480156103a857600080fd5b5061032b610fd8565b61032b6103bf36600461413e565b6112e7565b3480156103d057600080fd5b5061032b6103df3660046141e6565b6113b7565b3480156103f057600080fd5b5061038e61144a565b34801561040557600080fd5b5060fb5460ff166102fb565b34801561041d57600080fd5b5061012f54610214906001600160a01b031681565b34801561043e57600080fd5b5061038e6114fd565b34801561045357600080fd5b5061013154610214906001600160a01b031681565b34801561047457600080fd5b5061032b611580565b34801561048957600080fd5b506033546001600160a01b0316610214565b3480156104a757600080fd5b5061038e611592565b3480156104bc57600080fd5b5061013054610214906001600160a01b031681565b3480156104dd57600080fd5b5061038e6101325481565b3480156104f457600080fd5b5061038e6105033660046141ff565b6115c4565b34801561051457600080fd5b5061038e6105233660046140da565b611b30565b34801561053457600080fd5b5061032b611b77565b34801561054957600080fd5b5061038e611b87565b34801561055e57600080fd5b5061032b61056d366004614234565b611bcf565b34801561057e57600080fd5b5061038e61058d3660046140da565b6121f9565b61032b6105a036600461427f565b61224b565b3480156105b157600080fd5b5061012e54610214906001600160a01b031681565b3480156105d257600080fd5b5061032b6105e13660046140da565b612967565b3480156105f257600080fd5b5061038e6129da565b34801561060757600080fd5b5061032b6106163660046140da565b612a76565b6001600160a01b037f000000000000000000000000000000000000000000000000000000000000000016300361066c5760405162461bcd60e51b8152600401610663906142ba565b60405180910390fd5b7f00000000000000000000000000000000000000000000000000000000000000006001600160a01b03166106b5600080516020614a5b833981519152546001600160a01b031690565b6001600160a01b0316146106db5760405162461bcd60e51b815260040161066390614306565b6106e481612aec565b6040805160008082526020820190925261070091839190612af4565b50565b61070b612c64565b610713612cbe565b565b600061071f611592565b610134546040516370a0823160e01b81523060048201529192506000916001600160a01b03909116906370a0823190602401602060405180830381865afa15801561076e573d6000803e3d6000fd5b505050506040513d601f19601f820116820180604052508101906107929190614352565b610135549091508111156107f757610135546000906107b19083614381565b9050826107cd826ec097ce7bc90715b34b9f1000000000614398565b6107d791906143b7565b61013680546000906107ea9084906143d9565b9091555050506101358190555b604080516002808252606082018352600092602083019080368337019050509050733c8b650257cfb5f272f799f5e2b4e65093a11a0581600081518110610840576108406143f1565b60200260200101906001600160a01b031690816001600160a01b0316815250506042602160991b018160018151811061087b5761087b6143f1565b6001600160a01b039283166020918202929092010152610130546040516331279d3d60e01b81529116906331279d3d906108bb903090859060040161444b565b600060405180830381600087803b1580156108d557600080fd5b505af11580156108e9573d6000803e3d6000fd5b5060009250600191506108f99050565b604051908082528060200260200182016040528015610922578160200160208202803683370190505b506101345481519192506001600160a01b0316908290600090610947576109476143f1565b6001600160a01b03909216602092830291909101909101526040516308d8c03760e21b815273929ec64c34a17401f460460d4b9390518e5b473e9063236300dc906109a59084906000199030906042602160991b019060040161446f565b6020604051808303816000875af11580156109c4573d6000803e3d6000fd5b505050506040513d601f19601f820116820180604052508101906109e89190614352565b506040516370a0823160e01b8152306004820152600090733c8b650257cfb5f272f799f5e2b4e65093a11a05906370a0823190602401602060405180830381865afa158015610a3b573d6000803e3d6000fd5b505050506040513d601f19601f82011682018060405250810190610a5f9190614352565b90506000610a8982733c8b650257cfb5f272f799f5e2b4e65093a11a056006602160991b01612d18565b6040516370a0823160e01b81523060048201529091506000906042602160991b01906370a0823190602401602060405180830381865afa158015610ad1573d6000803e3d6000fd5b505050506040513d601f19601f82011682018060405250810190610af59190614352565b9050610b10816042602160991b016006602160991b01612d18565b610b1a90836143d9565b9150662386f26fc10000821115610fcf57610b55733c8b650257cfb5f272f799f5e2b4e65093a11a056006602160991b016000866000612da7565b610133549092506001600160a01b0316737f5c764cbc14f9669b88837ca1490cca17c3160714610ba957610b9c6042602160991b016006602160991b016000846000612da7565b610ba690836143d9565b91505b610133546000906001600160a01b03167368f180fcce6836688e9084f035309e29bf0a20941901610d875760408051600280825260608201909252600091816020015b6040805160608101825260008082526020808301829052928201528252600019909201910181610bec575050604080516060810182526006602160991b018152737f5c764cbc14f9669b88837ca1490cca17c3160760208201526000918101829052825192935091839190610c6357610c636143f1565b60200260200101819052506040518060600160405280737f5c764cbc14f9669b88837ca1490cca17c316076001600160a01b031681526020017368f180fcce6836688e9084f035309e29bf0a20956001600160a01b031681526020016000151581525081600181518110610cd957610cd96143f1565b6020908102919091010152604051631e82ecdb60e31b8152600080516020614a3b8339815191529063f41766d890610d1e9087906000908690309042906004016144fc565b6000604051808303816000875af1158015610d3d573d6000803e3d6000fd5b505050506040513d6000823e601f3d908101601f19168201604052610d659190810190614538565b600281518110610d7757610d776143f1565b6020026020010151915050610e0c565b610133546001600160a01b0316737f5c764cbc14f9669b88837ca1490cca17c316061901610e095761013354610dd2906006602160991b01906001600160a01b031660008681612da7565b61013354909150610df8906042602160991b01906001600160a01b031660008581612da7565b610e0290826143d9565b9050610e0c565b50815b60006127106101325483610e209190614398565b610e2a91906143b7565b9050610e368183614381565b6101315461013354919350610e58916001600160a01b03908116911683612e85565b88610e72836ec097ce7bc90715b34b9f1000000000614398565b610e7c91906143b7565b6101368054600090610e8f9084906143d9565b90915550506101335460405163617ba03760e01b81526001600160a01b039091166004820152602481018390523060448201526000606482015273794a61358d6845594f94dc1db02a252b5b4814ad9063617ba03790608401600060405180830381600087803b158015610f0257600080fd5b505af1158015610f16573d6000803e3d6000fd5b5050610134546040516370a0823160e01b81523060048201526001600160a01b0390911692506370a082319150602401602060405180830381865afa158015610f63573d6000803e3d6000fd5b505050506040513d601f19601f82011682018060405250810190610f879190614352565b6101355560408051868152602081018490529081018290527f4ec2d4038813a7f233af1d6d09519189db3ed5bc5b823bf72f6d3144574721de9060600160405180910390a150505b50505050505050565b610fe0612ee8565b610fe8610715565b336000908152610137602052604090208054156112dc576001810154610136548254600092916ec097ce7bc90715b34b9f1000000000916110299190614398565b61103391906143b7565b61103d9190614381565b905080156112da578082600101600082825461105991906143d9565b9091555050610134546040516370a0823160e01b81523060048201526000916001600160a01b0316906370a0823190602401602060405180830381865afa1580156110a8573d6000803e3d6000fd5b505050506040513d601f19601f820116820180604052508101906110cc9190614352565b90508181111561115a5761013354604051631a4ca37b60e21b81526001600160a01b0390911660048201526024810183905230604482015273794a61358d6845594f94dc1db02a252b5b4814ad906369328dec90606401600060405180830381600087803b15801561113d57600080fd5b505af1158015611151573d6000803e3d6000fd5b505050506111da565b61013354604051631a4ca37b60e21b81526001600160a01b0390911660048201526024810182905230604482015273794a61358d6845594f94dc1db02a252b5b4814ad906369328dec90606401600060405180830381600087803b1580156111c157600080fd5b505af11580156111d5573d6000803e3d6000fd5b505050505b61013554821015611206578161013360020160008282546111fb9190614381565b9091555061120d9050565b6000610135555b610133546040516370a0823160e01b81523060048201526000916001600160a01b0316906370a0823190602401602060405180830381865afa158015611257573d6000803e3d6000fd5b505050506040513d601f19601f8201168201806040525081019061127b9190614352565b61013354909150611296906001600160a01b03163383612e85565b60408051338152602081018590529081018290527f34fcbac0073d7c3d388e51312faf357774904998eeb8fca628b9e6f65ee1cbf79060600160405180910390a150505b505b50610713600160c955565b6001600160a01b037f000000000000000000000000000000000000000000000000000000000000000016300361132f5760405162461bcd60e51b8152600401610663906142ba565b7f00000000000000000000000000000000000000000000000000000000000000006001600160a01b0316611378600080516020614a5b833981519152546001600160a01b031690565b6001600160a01b03161461139e5760405162461bcd60e51b815260040161066390614306565b6113a782612aec565b6113b382826001612af4565b5050565b6113bf612c64565b6103e88111156114075760405162461bcd60e51b81526020600482015260136024820152724665652063616e6e6f74206f7665722031302560681b6044820152606401610663565b6101325460408051918252602082018390527fed33bc5aae0e2d4ddd9c708d2d82e03ee27775bea3c8a61ee57bd9528273d9d9910160405180910390a161013255565b6000306001600160a01b037f000000000000000000000000000000000000000000000000000000000000000016146114ea5760405162461bcd60e51b815260206004820152603860248201527f555550535570677261646561626c653a206d757374206e6f742062652063616c60448201527f6c6564207468726f7567682064656c656761746563616c6c00000000000000006064820152608401610663565b50600080516020614a5b83398151915290565b6101305461012f5460405163211dc32d60e01b81526001600160a01b039182166004820152306024820152600092919091169063211dc32d906044015b602060405180830381865afa158015611557573d6000803e3d6000fd5b505050506040513d601f19601f8201168201806040525081019061157b9190614352565b905090565b611588612c64565b6107136000612f41565b610130546040516370a0823160e01b81523060048201526000916001600160a01b0316906370a082319060240161153a565b60006115ce612ee8565b61012d546001600160a01b03858116911614806115f9575061012e546001600160a01b038581169116145b80611612575061012f546001600160a01b038581169116145b61164e5760405162461bcd60e51b815260206004820152600d60248201526c24b73b30b634b2103a37b5b2b760991b6044820152606401610663565b33600090815261013760205260409020831580159061166e575080548411155b6116c65760405162461bcd60e51b8152602060048201526024808201527f496e76616c696420616d6f756e744f75744c70546f6b656e20746f20776974686044820152636472617760e01b6064820152608401610663565b33600090815261013860205260409020544390036117325760405162461bcd60e51b8152602060048201526024808201527f4e6f7420616c6c6f772077697468647261772077697468696e2073616d6520626044820152636c6f636b60e01b6064820152608401610663565b61173a610715565b8054611747908590614381565b808255610136546ec097ce7bc90715b34b9f1000000000916117699190614398565b61177391906143b7565b600182015561013054604051632e1a7d4d60e01b8152600481018690526001600160a01b0390911690632e1a7d4d90602401600060405180830381600087803b1580156117bf57600080fd5b505af11580156117d3573d6000803e3d6000fd5b505061012f546001600160a01b03888116911614915061195990505761012d5461012e546101305460405163037b79b160e21b81526001600160a01b039384166004820152929091166024830152600160a01b900460ff16151560448201526064810185905260006084820181905260a482018190523060c48301524260e4830152908190600080516020614a3b83398151915290630dede6c4906101040160408051808303816000875af1158015611890573d6000803e3d6000fd5b505050506040513d601f19601f820116820180604052508101906118b491906145de565b61012d5491935091506001600160a01b03908116908816036119135761012e5461012d54610130546118ff926001600160a01b03908116921690600160a01b900460ff168489612da7565b61190990836143d9565b9150819350611952565b61012d5461012e5461013054611942926001600160a01b03908116921690600160a01b900460ff168589612da7565b61194c90826143d9565b90508093505b505061195d565b8391505b6005602160991b01196001600160a01b03861601611ac7576040516370a0823160e01b81523060048201526006602160991b0190632e1a7d4d9082906370a0823190602401602060405180830381865afa1580156119bf573d6000803e3d6000fd5b505050506040513d601f19601f820116820180604052508101906119e39190614352565b6040518263ffffffff1660e01b8152600401611a0191815260200190565b600060405180830381600087803b158015611a1b57600080fd5b505af1158015611a2f573d6000803e3d6000fd5b50506040516000925033915047908381818185875af1925050503d8060008114611a75576040519150601f19603f3d011682016040523d82523d6000602084013e611a7a565b606091505b5050905080611ac15760405162461bcd60e51b8152602060048201526013602482015272115512081d1c985b9cd9995c8819985a5b1959606a1b6044820152606401610663565b50611adb565b611adb6001600160a01b0386163384612e85565b846001600160a01b03167f884edad9ce6fa2440d8a54cc123490eb96d2768479d49ff9c7366125a942436483604051611b1691815260200190565b60405180910390a250611b29600160c955565b9392505050565b6000670de0b6b3a7640000611b436129da565b6001600160a01b03841660009081526101376020526040902054611b679190614398565b611b7191906143b7565b92915050565b611b7f612c64565b610713612f93565b600080611b92611592565b905080600003611ba457600091505090565b670de0b6b3a7640000611bb56129da565b611bbf9083614398565b611bc991906143b7565b91505090565b600054610100900460ff1615808015611bef5750600054600160ff909116105b80611c095750303b158015611c09575060005460ff166001145b611c6c5760405162461bcd60e51b815260206004820152602e60248201527f496e697469616c697a61626c653a20636f6e747261637420697320616c72656160448201526d191e481a5b9a5d1a585b1a5e995960921b6064820152608401610663565b6000805460ff191660011790558015611c8f576000805461ff0019166101001790555b611c97612fcc565b61013080546001600160a01b0319166001600160a01b03861690811790915560408051633a4b66f160e01b8152905160009291633a4b66f19160048083019260209291908290030181865afa158015611cf4573d6000803e3d6000fd5b505050506040513d601f19601f82011682018060405250810190611d189190614602565b61012f80546001600160a01b0319166001600160a01b03831690811790915560408051634eb1c24560e11b81528151939450600093849392639d63848a92600480820193918290030181865afa158015611d76573d6000803e3d6000fd5b505050506040513d601f19601f82011682018060405250810190611d9a919061461f565b61012d80546001600160a01b038085166001600160a01b03199283161790925561012e8054838516921691909117905561012f54604080516322be3de160e01b8152905194965092945016916322be3de1916004808201926020929091908290030181865afa158015611e11573d6000803e3d6000fd5b505050506040513d601f19601f82011682018060405250810190611e35919061466e565b610130805460ff60a01b1916600160a01b9215159290920291909117905561013380546001600160a01b0319166001600160a01b0388169081179091556040516335ea6a7560e01b8152600481019190915260009073794a61358d6845594f94dc1db02a252b5b4814ad906335ea6a759060240161012060405180830381865afa158015611ec7573d6000803e3d6000fd5b505050506040513d601f19601f82011682018060405250810190611eeb91906146a9565b985050505050505050508061013360010160006101000a8154816001600160a01b0302191690836001600160a01b031602179055508561013160006101000a8154816001600160a01b0302191690836001600160a01b03160217905550603261013281905550611f95600080516020614a3b83398151915260001961012d60009054906101000a90046001600160a01b03166001600160a01b0316612ffb9092919063ffffffff16565b61012e54611fbd906001600160a01b0316600080516020614a3b833981519152600019612ffb565b61012f54611fe5906001600160a01b0316600080516020614a3b833981519152600019612ffb565b6101305461012f54612006916001600160a01b039182169116600019612ffb565b612035733c8b650257cfb5f272f799f5e2b4e65093a11a05600080516020614a3b833981519152600019612ffb565b61013354612063906001600160a01b031673794a61358d6845594f94dc1db02a252b5b4814ad600019612ffb565b604051636eb1769f60e11b8152306004820152600080516020614a3b83398151915260248201526006602160991b019063dd62ed3e90604401602060405180830381865afa1580156120b9573d6000803e3d6000fd5b505050506040513d601f19601f820116820180604052508101906120dd9190614352565b600003612106576121066006602160991b01600080516020614a3b833981519152600019612ffb565b604051636eb1769f60e11b8152306004820152600080516020614a3b83398151915260248201526042602160991b019063dd62ed3e90604401602060405180830381865afa15801561215c573d6000803e3d6000fd5b505050506040513d601f19601f820116820180604052508101906121809190614352565b6000036121a9576121a96042602160991b01600080516020614a3b833981519152600019612ffb565b5050505080156121f3576000805461ff0019169055604051600181527f7f26b83ff96e1f2b6a682f133852f6798a09c465da95921460cefb38474024989060200160405180910390a15b50505050565b6001600160a01b03811660009081526101376020526040812060018101546101365482546ec097ce7bc90715b34b9f10000000009161223791614398565b61224191906143b7565b611b299190614381565b612253612ee8565b61225b613110565b61012d546001600160a01b0385811691161480612286575061012e546001600160a01b038581169116145b8061229f575061012f546001600160a01b038581169116145b6122db5760405162461bcd60e51b815260206004820152600d60248201526c24b73b30b634b2103a37b5b2b760991b6044820152606401610663565b6000831161231c5760405162461bcd60e51b815260206004820152600e60248201526d125b9d985b1a5908185b5bdd5b9d60921b6044820152606401610663565b6000612326611592565b9050801561233657612336610715565b61012d546040516370a0823160e01b81523060048201526000916001600160a01b0316906370a0823190602401602060405180830381865afa158015612380573d6000803e3d6000fd5b505050506040513d601f19601f820116820180604052508101906123a49190614352565b61012e546040516370a0823160e01b81523060048201529192506000916001600160a01b03909116906370a0823190602401602060405180830381865afa1580156123f3573d6000803e3d6000fd5b505050506040513d601f19601f820116820180604052508101906124179190614352565b90503415612522576001600160a01b0387166006602160991b011461247e5760405162461bcd60e51b815260206004820152601960248201527f57455448206f6e6c7920666f7220455448206465706f736974000000000000006044820152606401610663565b3486146124c25760405162461bcd60e51b8152602060048201526012602482015271125b9d985b1a590811551208185b5bdd5b9d60721b6044820152606401610663565b6006602160991b016001600160a01b031663d0e30db0346040518263ffffffff1660e01b81526004016000604051808303818588803b15801561250457600080fd5b505af1158015612518573d6000803e3d6000fd5b5050505050612537565b6125376001600160a01b038816333089613156565b3360009081526101386020526040812043905561012f546001600160a01b038981169116146128415761012d5460009081906001600160a01b03908116908b16036125da576103e8612589898b614398565b61259391906143b7565b61012d5461012e54610130549294506125c7926001600160a01b039283169290911690600160a01b900460ff16858b612da7565b90506125d3828a614381565b9150612634565b6103e86125e7898b614398565b6125f191906143b7565b61012e5461012d5461013054929350612625926001600160a01b039283169290911690600160a01b900460ff16848b612da7565b9150612631818a614381565b90505b61012d5461012e5461013054604051635a47ddc360e01b81526001600160a01b039384166004820152929091166024830152600160a01b900460ff16151560448201526064810183905260848101829052600060a4820181905260c48201523060e482015242610104820152600080516020614a3b83398151915290635a47ddc390610124016060604051808303816000875af11580156126d9573d6000803e3d6000fd5b505050506040513d601f19601f820116820180604052508101906126fd9190614765565b61012d546040516370a0823160e01b8152306004820152919650600093508892506001600160a01b0316906370a0823190602401602060405180830381865afa15801561274e573d6000803e3d6000fd5b505050506040513d601f19601f820116820180604052508101906127729190614352565b61277c9190614381565b9050801561279c5761012d5461279c906001600160a01b03163383612e85565b61012e546040516370a0823160e01b815230600482015260009187916001600160a01b03909116906370a0823190602401602060405180830381865afa1580156127ea573d6000803e3d6000fd5b505050506040513d601f19601f8201168201806040525081019061280e9190614352565b6128189190614381565b905080156128385761012e54612838906001600160a01b03163383612e85565b50505050612844565b50855b61013054604051631c57762b60e31b815260048101839052600060248201526001600160a01b039091169063e2bbb15890604401600060405180830381600087803b15801561289257600080fd5b505af11580156128a6573d6000803e3d6000fd5b50503360009081526101376020526040812080549093508492508391906128ce9084906143d9565b9091555050610136546ec097ce7bc90715b34b9f1000000000906128f29084614398565b6128fc91906143b7565b81600101600082825461290f91906143d9565b909155505060408051898152602081018490526001600160a01b038b16917f90890809c654f11d6e72a28fa60149770a0d11ec6c92319d6ceb2bb0a4ea1a15910160405180910390a250505050506121f3600160c955565b61296f612c64565b61013154604080516001600160a01b03928316815291831660208301527f190c262dc6f09322c68a13bf67c9659e58367755ba6190fa7ce5ca8aa45a877d910160405180910390a161013180546001600160a01b0319166001600160a01b0392909216919091179055565b6000807313e3ee699d1909e989722e753853ae30b17e08c56001600160a01b031663feaf968c6040518163ffffffff1660e01b815260040160a060405180830381865afa158015612a2f573d6000803e3d6000fd5b505050506040513d601f19601f82011682018060405250810190612a5391906147ad565b50505091505068056bc75e2d6310000081612a6c61318e565b611bbf9190614398565b612a7e612c64565b6001600160a01b038116612ae35760405162461bcd60e51b815260206004820152602660248201527f4f776e61626c653a206e6577206f776e657220697320746865207a65726f206160448201526564647265737360d01b6064820152608401610663565b61070081612f41565b610700612c64565b7f4910fdfa16fed3260ed0e7147f7cc6da11a60208b5b9406d12a635614ffd91435460ff1615612b2c57612b2783613be0565b505050565b826001600160a01b03166352d1902d6040518163ffffffff1660e01b8152600401602060405180830381865afa925050508015612b86575060408051601f3d908101601f19168201909252612b8391810190614352565b60015b612be95760405162461bcd60e51b815260206004820152602e60248201527f45524331393637557067726164653a206e657720696d706c656d656e7461746960448201526d6f6e206973206e6f74205555505360901b6064820152608401610663565b600080516020614a5b8339815191528114612c585760405162461bcd60e51b815260206004820152602960248201527f45524331393637557067726164653a20756e737570706f727465642070726f786044820152681a58589b195555525160ba1b6064820152608401610663565b50612b27838383613c7c565b6033546001600160a01b031633146107135760405162461bcd60e51b815260206004820181905260248201527f4f776e61626c653a2063616c6c6572206973206e6f7420746865206f776e65726044820152606401610663565b612cc6613110565b60fb805460ff191660011790557f62e78cea01bee320cd4e420270b5ea74000d11b0c9f74754ebdbfc544b05a258612cfb3390565b6040516001600160a01b03909116815260200160405180910390a1565b60008315612d9d57604051635e1e632560e01b8152600080516020614a3b83398151915290635e1e632590612d55908790879087906004016147fd565b6040805180830381865afa158015612d71573d6000803e3d6000fd5b505050506040513d601f19601f82011682018060405250810190612d95919061481c565b509050611b29565b5060009392505050565b600082600003612db957506000612e7c565b6040516313dcfc5960e01b815260048101849052602481018390526001600160a01b0380881660448301528616606482015284151560848201523060a48201524260c4820152600080516020614a3b833981519152906313dcfc599060e4016000604051808303816000875af1158015612e37573d6000803e3d6000fd5b505050506040513d6000823e601f3d908101601f19168201604052612e5f9190810190614538565b600181518110612e7157612e716143f1565b602002602001015190505b95945050505050565b6040516001600160a01b038316602482015260448101829052612b2790849063a9059cbb60e01b906064015b60408051601f198184030181529190526020810180516001600160e01b03166001600160e01b031990931692909217909152613ca1565b600260c95403612f3a5760405162461bcd60e51b815260206004820152601f60248201527f5265656e7472616e637947756172643a207265656e7472616e742063616c6c006044820152606401610663565b600260c955565b603380546001600160a01b038381166001600160a01b0319831681179093556040519116919082907f8be0079c531659141344cd1fd0a4f28419497f9722a3daafe3b4186f6b6457e090600090a35050565b612f9b613d73565b60fb805460ff191690557f5db9ee0a495bf2e6ff9c91a7834c1ba4fdd244a5e8aa4e537bd38aeae4b073aa33612cfb565b600054610100900460ff16612ff35760405162461bcd60e51b815260040161066390614848565b610713613dbc565b8015806130755750604051636eb1769f60e11b81523060048201526001600160a01b03838116602483015284169063dd62ed3e90604401602060405180830381865afa15801561304f573d6000803e3d6000fd5b505050506040513d601f19601f820116820180604052508101906130739190614352565b155b6130e05760405162461bcd60e51b815260206004820152603660248201527f5361666545524332303a20617070726f76652066726f6d206e6f6e2d7a65726f60448201527520746f206e6f6e2d7a65726f20616c6c6f77616e636560501b6064820152608401610663565b6040516001600160a01b038316602482015260448101829052612b2790849063095ea7b360e01b90606401612eb1565b60fb5460ff16156107135760405162461bcd60e51b815260206004820152601060248201526f14185d5cd8589b194e881c185d5cd95960821b6044820152606401610663565b6040516001600160a01b03808516602483015283166044820152606481018290526121f39085906323b872dd60e01b90608401612eb1565b600080600061012f60009054906101000a90046001600160a01b03166001600160a01b0316630902f1ac6040518163ffffffff1660e01b81526004016040805180830381865afa1580156131e6573d6000803e3d6000fd5b505050506040513d601f19601f8201168201806040525081019061320a91906145de565b9150915060008061012d60009054906101000a90046001600160a01b03166001600160a01b031663313ce5676040518163ffffffff1660e01b8152600401602060405180830381865afa158015613265573d6000803e3d6000fd5b505050506040513d601f19601f820116820180604052508101906132899190614893565b60ff169050600061012e60009054906101000a90046001600160a01b03166001600160a01b031663313ce5676040518163ffffffff1660e01b8152600401602060405180830381865afa1580156132e4573d6000803e3d6000fd5b505050506040513d601f19601f820116820180604052508101906133089190614893565b61012d5460ff9190911691506001600160a01b03166005602160991b0119016133fd576000600080516020614a3b833981519152635e1e632561334c84600a61499a565b61012e546040516001600160e01b031960e085901b16815261338492916001600160a01b0316906006602160991b01906004016147fd565b6040805180830381865afa1580156133a0573d6000803e3d6000fd5b505050506040513d601f19601f820116820180604052508101906133c4919061481c565b50905060006133d483600a61499a565b6133de8388614398565b6133e891906143b7565b90506133f481886143d9565b94505050613b42565b61012e546001600160a01b03166005602160991b0119016134e1576000600080516020614a3b833981519152635e1e632561343985600a61499a565b61012d546040516001600160e01b031960e085901b16815261347192916001600160a01b0316906006602160991b01906004016147fd565b6040805180830381865afa15801561348d573d6000803e3d6000fd5b505050506040513d601f19601f820116820180604052508101906134b1919061481c565b50905060006134c184600a61499a565b6134cb8389614398565b6134d591906143b7565b90506133f481876143d9565b60408051600280825260608201909252600091816020015b60408051606081018252600080825260208083018290529282015282526000199092019101816134f95790505061012d5490915060009081906001600160a01b0316737f5c764cbc14f9669b88837ca1490cca17c3160714801561356c575061013054600160a01b900460ff1615156001145b1561376f57604051635e1e632560e01b8152600080516020614a3b83398151915290635e1e6325906135c490620f424090737f5c764cbc14f9669b88837ca1490cca17c31607906006602160991b01906004016147fd565b6040805180830381865afa1580156135e0573d6000803e3d6000fd5b505050506040513d601f19601f82011682018060405250810190613604919061481c565b506040805160608101825261012e546001600160a01b03168152737f5c764cbc14f9669b88837ca1490cca17c3160760208201526001918101919091528451919350908490600090613658576136586143f1565b60200260200101819052506040518060600160405280737f5c764cbc14f9669b88837ca1490cca17c316076001600160a01b031681526020016006602160991b016001600160a01b0316815260200160001515815250836001815181106136c1576136c16143f1565b6020908102919091010152600080516020614a3b833981519152639881fcb46136eb86600a61499a565b856040518363ffffffff1660e01b81526004016137099291906149a6565b600060405180830381865afa158015613726573d6000803e3d6000fd5b505050506040513d6000823e601f3d908101601f1916820160405261374e9190810190614538565b600281518110613760576137606143f1565b60200260200101519050613aea565b61012e546001600160a01b0316737f5c764cbc14f9669b88837ca1490cca17c316071480156137ad575061013054600160a01b900460ff1615156001145b156139b5576040805160608101825261012d546001600160a01b03168152737f5c764cbc14f9669b88837ca1490cca17c31607602082015260009181018290528451909185916137ff576137ff6143f1565b60200260200101819052506040518060600160405280737f5c764cbc14f9669b88837ca1490cca17c316076001600160a01b031681526020016006602160991b016001600160a01b031681526020016000151581525083600181518110613868576138686143f1565b6020908102919091010152600080516020614a3b833981519152639881fcb461389287600a61499a565b856040518363ffffffff1660e01b81526004016138b09291906149a6565b600060405180830381865afa1580156138cd573d6000803e3d6000fd5b505050506040513d6000823e601f3d908101601f191682016040526138f59190810190614538565b600281518110613907576139076143f1565b60200260200101519150600080516020614a3b8339815191526001600160a01b0316635e1e6325620f4240737f5c764cbc14f9669b88837ca1490cca17c316076006602160991b016040518463ffffffff1660e01b815260040161396d939291906147fd565b6040805180830381865afa158015613989573d6000803e3d6000fd5b505050506040513d601f19601f820116820180604052508101906139ad919061481c565b509050613aea565b600080516020614a3b833981519152635e1e63256139d487600a61499a565b61012d546040516001600160e01b031960e085901b168152613a0c92916001600160a01b0316906006602160991b01906004016147fd565b6040805180830381865afa158015613a28573d6000803e3d6000fd5b505050506040513d601f19601f82011682018060405250810190613a4c919061481c565b509150600080516020614a3b833981519152635e1e6325613a6e86600a61499a565b61012e546040516001600160e01b031960e085901b168152613aa692916001600160a01b0316906006602160991b01906004016147fd565b6040805180830381865afa158015613ac2573d6000803e3d6000fd5b505050506040513d601f19601f82011682018060405250810190613ae6919061481c565b5090505b6000613af786600a61499a565b613b01848b614398565b613b0b91906143b7565b90506000613b1a86600a61499a565b613b24848b614398565b613b2e91906143b7565b9050613b3a81836143d9565b975050505050505b61012f60009054906101000a90046001600160a01b03166001600160a01b03166318160ddd6040518163ffffffff1660e01b8152600401602060405180830381865afa158015613b96573d6000803e3d6000fd5b505050506040513d601f19601f82011682018060405250810190613bba9190614352565b613bcc84670de0b6b3a7640000614398565b613bd691906143b7565b9550505050505090565b6001600160a01b0381163b613c4d5760405162461bcd60e51b815260206004820152602d60248201527f455243313936373a206e657720696d706c656d656e746174696f6e206973206e60448201526c1bdd08184818dbdb9d1c9858dd609a1b6064820152608401610663565b600080516020614a5b83398151915280546001600160a01b0319166001600160a01b0392909216919091179055565b613c8583613dec565b600082511180613c925750805b15612b27576121f38383613e2c565b6000613cf6826040518060400160405280602081526020017f5361666545524332303a206c6f772d6c6576656c2063616c6c206661696c6564815250856001600160a01b0316613f179092919063ffffffff16565b805190915015612b275780806020019051810190613d14919061466e565b612b275760405162461bcd60e51b815260206004820152602a60248201527f5361666545524332303a204552433230206f7065726174696f6e20646964206e6044820152691bdd081cdd58d8d9595960b21b6064820152608401610663565b60fb5460ff166107135760405162461bcd60e51b815260206004820152601460248201527314185d5cd8589b194e881b9bdd081c185d5cd95960621b6044820152606401610663565b600054610100900460ff16613de35760405162461bcd60e51b815260040161066390614848565b61071333612f41565b613df581613be0565b6040516001600160a01b038216907fbc7cd75a20ee27fd9adebab32041f755214dbc6bffa90cc0225b39da2e5c2d3b90600090a250565b60606001600160a01b0383163b613e945760405162461bcd60e51b815260206004820152602660248201527f416464726573733a2064656c65676174652063616c6c20746f206e6f6e2d636f6044820152651b9d1c9858dd60d21b6064820152608401610663565b600080846001600160a01b031684604051613eaf91906149eb565b600060405180830381855af49150503d8060008114613eea576040519150601f19603f3d011682016040523d82523d6000602084013e613eef565b606091505b5091509150612e7c8282604051806060016040528060278152602001614a7b60279139613f2e565b6060613f268484600085613f47565b949350505050565b60608315613f3d575081611b29565b611b298383614022565b606082471015613fa85760405162461bcd60e51b815260206004820152602660248201527f416464726573733a20696e73756666696369656e742062616c616e636520666f6044820152651c8818d85b1b60d21b6064820152608401610663565b600080866001600160a01b03168587604051613fc491906149eb565b60006040518083038185875af1925050503d8060008114614001576040519150601f19603f3d011682016040523d82523d6000602084013e614006565b606091505b50915091506140178783838761404c565b979650505050505050565b8151156140325781518083602001fd5b8060405162461bcd60e51b81526004016106639190614a07565b606083156140bb5782516000036140b4576001600160a01b0385163b6140b45760405162461bcd60e51b815260206004820152601d60248201527f416464726573733a2063616c6c20746f206e6f6e2d636f6e74726163740000006044820152606401610663565b5081613f26565b613f268383614022565b6001600160a01b038116811461070057600080fd5b6000602082840312156140ec57600080fd5b8135611b29816140c5565b634e487b7160e01b600052604160045260246000fd5b604051601f8201601f1916810167ffffffffffffffff81118282101715614136576141366140f7565b604052919050565b6000806040838503121561415157600080fd5b823561415c816140c5565b915060208381013567ffffffffffffffff8082111561417a57600080fd5b818601915086601f83011261418e57600080fd5b8135818111156141a0576141a06140f7565b6141b2601f8201601f1916850161410d565b915080825287848285010111156141c857600080fd5b80848401858401376000848284010152508093505050509250929050565b6000602082840312156141f857600080fd5b5035919050565b60008060006060848603121561421457600080fd5b833561421f816140c5565b95602085013595506040909401359392505050565b60008060006060848603121561424957600080fd5b8335614254816140c5565b92506020840135614264816140c5565b91506040840135614274816140c5565b809150509250925092565b6000806000806080858703121561429557600080fd5b84356142a0816140c5565b966020860135965060408601359560600135945092505050565b6020808252602c908201527f46756e6374696f6e206d7573742062652063616c6c6564207468726f7567682060408201526b19195b1959d85d1958d85b1b60a21b606082015260800190565b6020808252602c908201527f46756e6374696f6e206d7573742062652063616c6c6564207468726f7567682060408201526b6163746976652070726f787960a01b606082015260800190565b60006020828403121561436457600080fd5b5051919050565b634e487b7160e01b600052601160045260246000fd5b6000828210156143935761439361436b565b500390565b60008160001904831182151516156143b2576143b261436b565b500290565b6000826143d457634e487b7160e01b600052601260045260246000fd5b500490565b600082198211156143ec576143ec61436b565b500190565b634e487b7160e01b600052603260045260246000fd5b600081518084526020808501945080840160005b838110156144405781516001600160a01b03168752958201959082019060010161441b565b509495945050505050565b6001600160a01b0383168152604060208201819052600090613f2690830184614407565b6080815260006144826080830187614407565b6020830195909552506001600160a01b0392831660408201529116606090910152919050565b600081518084526020808501945080840160005b8381101561444057815180516001600160a01b039081168952848201511684890152604090810151151590880152606090960195908201906001016144bc565b85815284602082015260a06040820152600061451b60a08301866144a8565b6001600160a01b0394909416606083015250608001529392505050565b6000602080838503121561454b57600080fd5b825167ffffffffffffffff8082111561456357600080fd5b818501915085601f83011261457757600080fd5b815181811115614589576145896140f7565b8060051b915061459a84830161410d565b81815291830184019184810190888411156145b457600080fd5b938501935b838510156145d2578451825293850193908501906145b9565b98975050505050505050565b600080604083850312156145f157600080fd5b505080516020909101519092909150565b60006020828403121561461457600080fd5b8151611b29816140c5565b6000806040838503121561463257600080fd5b825161463d816140c5565b602084015190925061464e816140c5565b809150509250929050565b8051801515811461466957600080fd5b919050565b60006020828403121561468057600080fd5b611b2982614659565b80516fffffffffffffffffffffffffffffffff8116811461466957600080fd5b60008060008060008060008060006101208a8c0312156146c857600080fd5b895198506146d860208b01614689565b97506146e660408b01614689565b96506146f460608b01614689565b955061470260808b01614689565b945061471060a08b01614689565b935060c08a015164ffffffffff8116811461472a57600080fd5b60e08b015190935061ffff8116811461474257600080fd5b6101008b0151909250614754816140c5565b809150509295985092959850929598565b60008060006060848603121561477a57600080fd5b8351925060208401519150604084015190509250925092565b805169ffffffffffffffffffff8116811461466957600080fd5b600080600080600060a086880312156147c557600080fd5b6147ce86614793565b94506020860151935060408601519250606086015191506147f160808701614793565b90509295509295909350565b9283526001600160a01b03918216602084015216604082015260600190565b6000806040838503121561482f57600080fd5b8251915061483f60208401614659565b90509250929050565b6020808252602b908201527f496e697469616c697a61626c653a20636f6e7472616374206973206e6f74206960408201526a6e697469616c697a696e6760a81b606082015260800190565b6000602082840312156148a557600080fd5b815160ff81168114611b2957600080fd5b600181815b808511156148f15781600019048211156148d7576148d761436b565b808516156148e457918102915b93841c93908002906148bb565b509250929050565b60008261490857506001611b71565b8161491557506000611b71565b816001811461492b576002811461493557614951565b6001915050611b71565b60ff8411156149465761494661436b565b50506001821b611b71565b5060208310610133831016604e8410600b8410161715614974575081810a611b71565b61497e83836148b6565b80600019048211156149925761499261436b565b029392505050565b6000611b2983836148f9565b828152604060208201526000613f2660408301846144a8565b60005b838110156149da5781810151838201526020016149c2565b838111156121f35750506000910152565b600082516149fd8184602087016149bf565b9190910192915050565b6020815260008251806020840152614a268160408501602087016149bf565b601f01601f1916919091016040019291505056fe000000000000000000000000a132dab612db5cb9fc9ac426a0cc215a3423f9c9360894a13ba1a3210667c828492db98dca3e2076cc3735a920a3ca505d382bbc416464726573733a206c6f772d6c6576656c2064656c65676174652063616c6c206661696c6564a2646970667358221220f5725f98076c4c21fd9480752f825e6443c18a2d01ec1affc188e2ef45c1d2ce64736f6c634300080f0033",
        "nonce": "0x35"
      },
      "additionalContracts": []
    },
    {
      "hash": "0x81fd30e442518487a6a0676688196f1f40e99a91d2550311201e479eb489e1e1",
      "transactionType": "CALL",
      "contractName": null,
      "contractAddress": "0x208e2D48b5A080E57792D8b175De914Ddb18F9a8",
      "function": "upgradeTo(address)",
      "arguments": [
        "0xB7957FE76c2fEAe66B57CF3191aFD26d99EC5599"
      ],
      "transaction": {
        "type": "0x00",
        "from": "0x2c10ac0e6b6c1619f4976b2ba559135bfef53c5e",
        "to": "0x208e2d48b5a080e57792d8b175de914ddb18f9a8",
        "gas": "0xd390",
        "value": "0x0",
        "data": "0x3659cfe6000000000000000000000000b7957fe76c2feae66b57cf3191afd26d99ec5599",
        "nonce": "0x36"
      },
      "additionalContracts": []
    },
    {
      "hash": "0x38fe3e318c9e421d5f5ae3c9f737532366fc2448715c641210e606bc2af91158",
      "transactionType": "CALL",
      "contractName": null,
      "contractAddress": "0xee9857e5e1d0089075F75ABe5255fc30695d09FA",
      "function": "upgradeTo(address)",
      "arguments": [
        "0xB7957FE76c2fEAe66B57CF3191aFD26d99EC5599"
      ],
      "transaction": {
        "type": "0x00",
        "from": "0x2c10ac0e6b6c1619f4976b2ba559135bfef53c5e",
        "to": "0xee9857e5e1d0089075f75abe5255fc30695d09fa",
        "gas": "0xd390",
        "value": "0x0",
        "data": "0x3659cfe6000000000000000000000000b7957fe76c2feae66b57cf3191afd26d99ec5599",
        "nonce": "0x37"
      },
      "additionalContracts": []
    },
    {
      "hash": "0x4ddfb45869018357bd3e63389cdc3bd0ad210d0ebb8630e1a552d200c5ab6d9f",
      "transactionType": "CALL",
      "contractName": null,
      "contractAddress": "0x74f6C748E2DF1c89bf7ed29617A2B41b0f4f82A2",
      "function": "upgradeTo(address)",
      "arguments": [
        "0xB7957FE76c2fEAe66B57CF3191aFD26d99EC5599"
      ],
      "transaction": {
        "type": "0x00",
        "from": "0x2c10ac0e6b6c1619f4976b2ba559135bfef53c5e",
        "to": "0x74f6c748e2df1c89bf7ed29617a2b41b0f4f82a2",
        "gas": "0xd390",
        "value": "0x0",
        "data": "0x3659cfe6000000000000000000000000b7957fe76c2feae66b57cf3191afd26d99ec5599",
        "nonce": "0x38"
      },
      "additionalContracts": []
    },
    {
      "hash": "0xc9eb437099abc9c7caaea0e09e34c9fa5a26365e9ed714b6de9e16745cf5e312",
      "transactionType": "CALL",
      "contractName": null,
      "contractAddress": "0x75633BFAbf0ee9036af06900b8f301Ed8ed29121",
      "function": "upgradeTo(address)",
      "arguments": [
        "0xB7957FE76c2fEAe66B57CF3191aFD26d99EC5599"
      ],
      "transaction": {
        "type": "0x00",
        "from": "0x2c10ac0e6b6c1619f4976b2ba559135bfef53c5e",
        "to": "0x75633bfabf0ee9036af06900b8f301ed8ed29121",
        "gas": "0xd390",
        "value": "0x0",
        "data": "0x3659cfe6000000000000000000000000b7957fe76c2feae66b57cf3191afd26d99ec5599",
        "nonce": "0x39"
      },
      "additionalContracts": []
    },
    {
      "hash": "0x9199f2360bd4c9d86d5a8b05e28ca0113c113e1eb94d329de73b6bffb041b33e",
      "transactionType": "CALL",
      "contractName": null,
      "contractAddress": "0xc23CF2762094a4Dd8DC3D4AaAAfdB38704B0f484",
      "function": "upgradeTo(address)",
      "arguments": [
        "0xB7957FE76c2fEAe66B57CF3191aFD26d99EC5599"
      ],
      "transaction": {
        "type": "0x00",
        "from": "0x2c10ac0e6b6c1619f4976b2ba559135bfef53c5e",
        "to": "0xc23cf2762094a4dd8dc3d4aaaafdb38704b0f484",
        "gas": "0xd390",
        "value": "0x0",
        "data": "0x3659cfe6000000000000000000000000b7957fe76c2feae66b57cf3191afd26d99ec5599",
        "nonce": "0x3a"
      },
      "additionalContracts": []
    },
    {
      "hash": "0xe18f25eb48c21573212c84dc5ea51c5d15b83dd2498ddcd012ad1dc563eb9969",
      "transactionType": "CALL",
      "contractName": null,
      "contractAddress": "0xC15d58452E7CC62F213534dcD1999EDcc4C56E53",
      "function": "upgradeTo(address)",
      "arguments": [
        "0xB7957FE76c2fEAe66B57CF3191aFD26d99EC5599"
      ],
      "transaction": {
        "type": "0x00",
        "from": "0x2c10ac0e6b6c1619f4976b2ba559135bfef53c5e",
        "to": "0xc15d58452e7cc62f213534dcd1999edcc4c56e53",
        "gas": "0xd390",
        "value": "0x0",
        "data": "0x3659cfe6000000000000000000000000b7957fe76c2feae66b57cf3191afd26d99ec5599",
        "nonce": "0x3b"
      },
      "additionalContracts": []
    },
    {
      "hash": "0x18eb12d4c07ac1c154fbdf963315ce758aa3eb0cbf640063747deeb461e1a034",
      "transactionType": "CALL",
      "contractName": null,
      "contractAddress": "0xcaCdE37C8Aef43304e9d7153e668eDb7126Ff755",
      "function": "upgradeTo(address)",
      "arguments": [
        "0xB7957FE76c2fEAe66B57CF3191aFD26d99EC5599"
      ],
      "transaction": {
        "type": "0x00",
        "from": "0x2c10ac0e6b6c1619f4976b2ba559135bfef53c5e",
        "to": "0xcacde37c8aef43304e9d7153e668edb7126ff755",
        "gas": "0xd390",
        "value": "0x0",
        "data": "0x3659cfe6000000000000000000000000b7957fe76c2feae66b57cf3191afd26d99ec5599",
        "nonce": "0x3c"
      },
      "additionalContracts": []
    },
    {
      "hash": "0x2dfd3b89fe81bef6a59a89ef0282f4510430e870ef1e86fcab30dcd94d9cc683",
      "transactionType": "CALL",
      "contractName": null,
      "contractAddress": "0xf12a8E2Fd857B134381c1B9F6027D4F0eE05295A",
      "function": "upgradeTo(address)",
      "arguments": [
        "0xB7957FE76c2fEAe66B57CF3191aFD26d99EC5599"
      ],
      "transaction": {
        "type": "0x00",
        "from": "0x2c10ac0e6b6c1619f4976b2ba559135bfef53c5e",
        "to": "0xf12a8e2fd857b134381c1b9f6027d4f0ee05295a",
        "gas": "0xd390",
        "value": "0x0",
        "data": "0x3659cfe6000000000000000000000000b7957fe76c2feae66b57cf3191afd26d99ec5599",
        "nonce": "0x3d"
      },
      "additionalContracts": []
    },
    {
      "hash": "0xd404fe44c34db619727f6cac7a1b3c219c6243fae4396e5b2247cad1f22d5612",
      "transactionType": "CALL",
      "contractName": null,
      "contractAddress": "0x52671440732589E3027517E22c49ABc04941CF2F",
      "function": "upgradeTo(address)",
      "arguments": [
        "0xB7957FE76c2fEAe66B57CF3191aFD26d99EC5599"
      ],
      "transaction": {
        "type": "0x00",
        "from": "0x2c10ac0e6b6c1619f4976b2ba559135bfef53c5e",
        "to": "0x52671440732589e3027517e22c49abc04941cf2f",
        "gas": "0xd390",
        "value": "0x0",
        "data": "0x3659cfe6000000000000000000000000b7957fe76c2feae66b57cf3191afd26d99ec5599",
        "nonce": "0x3e"
      },
      "additionalContracts": []
    },
    {
      "hash": "0x38616f3d8ab948cf3fcfe449047e778a9c7b3ccb92cdbf68db9323b492e019a1",
      "transactionType": "CALL",
      "contractName": null,
      "contractAddress": "0x3BD8d78d77dfA391c5F73c10aDeaAdD9a7f7198C",
      "function": "upgradeTo(address)",
      "arguments": [
        "0xB7957FE76c2fEAe66B57CF3191aFD26d99EC5599"
      ],
      "transaction": {
        "type": "0x00",
        "from": "0x2c10ac0e6b6c1619f4976b2ba559135bfef53c5e",
        "to": "0x3bd8d78d77dfa391c5f73c10adeaadd9a7f7198c",
        "gas": "0xd390",
        "value": "0x0",
        "data": "0x3659cfe6000000000000000000000000b7957fe76c2feae66b57cf3191afd26d99ec5599",
        "nonce": "0x3f"
      },
      "additionalContracts": []
    },
    {
      "hash": "0xb6a626d1025c5cd8e07296959d5ed14c65d7bc32e30cfd06d0a01fd70bbc3eac",
      "transactionType": "CALL",
      "contractName": null,
      "contractAddress": "0x2510E5054eeEbED40C3C580ae3241F5457b630D9",
      "function": "upgradeTo(address)",
      "arguments": [
        "0xB7957FE76c2fEAe66B57CF3191aFD26d99EC5599"
      ],
      "transaction": {
        "type": "0x00",
        "from": "0x2c10ac0e6b6c1619f4976b2ba559135bfef53c5e",
        "to": "0x2510e5054eeebed40c3c580ae3241f5457b630d9",
        "gas": "0xd390",
        "value": "0x0",
        "data": "0x3659cfe6000000000000000000000000b7957fe76c2feae66b57cf3191afd26d99ec5599",
        "nonce": "0x40"
      },
      "additionalContracts": []
    },
    {
      "hash": "0xc1237eab142702f91666e076c0c095d25262a648e1700a49d0eb4d7690ac5105",
      "transactionType": "CALL",
      "contractName": null,
      "contractAddress": "0xFAcB839BF8f09f2e7B4b6C83349B5bbFD62fd659",
      "function": "upgradeTo(address)",
      "arguments": [
        "0xB7957FE76c2fEAe66B57CF3191aFD26d99EC5599"
      ],
      "transaction": {
        "type": "0x00",
        "from": "0x2c10ac0e6b6c1619f4976b2ba559135bfef53c5e",
        "to": "0xfacb839bf8f09f2e7b4b6c83349b5bbfd62fd659",
        "gas": "0xd390",
        "value": "0x0",
        "data": "0x3659cfe6000000000000000000000000b7957fe76c2feae66b57cf3191afd26d99ec5599",
        "nonce": "0x41"
      },
      "additionalContracts": []
    },
    {
      "hash": "0xfc6e35b9328e30468290610181758faa637f25553b5d9a9a51f2196402df8da9",
      "transactionType": "CALL",
      "contractName": null,
      "contractAddress": "0xa0Ea9A553cB47658e62Dee4D7b49F7c8Da234B69",
      "function": "upgradeTo(address)",
      "arguments": [
        "0xB7957FE76c2fEAe66B57CF3191aFD26d99EC5599"
      ],
      "transaction": {
        "type": "0x00",
        "from": "0x2c10ac0e6b6c1619f4976b2ba559135bfef53c5e",
        "to": "0xa0ea9a553cb47658e62dee4d7b49f7c8da234b69",
        "gas": "0xd390",
        "value": "0x0",
        "data": "0x3659cfe6000000000000000000000000b7957fe76c2feae66b57cf3191afd26d99ec5599",
        "nonce": "0x42"
      },
      "additionalContracts": []
    },
    {
      "hash": "0xdcd08a679a42e0a87986d001cf4a435bf730a410a40d8d0e7dc8d4874028d923",
      "transactionType": "CALL",
      "contractName": null,
      "contractAddress": "0xd0f9990a611018b5b30BFE1C5433bf5bba2a9868",
      "function": "upgradeTo(address)",
      "arguments": [
        "0xB7957FE76c2fEAe66B57CF3191aFD26d99EC5599"
      ],
      "transaction": {
        "type": "0x00",
        "from": "0x2c10ac0e6b6c1619f4976b2ba559135bfef53c5e",
        "to": "0xd0f9990a611018b5b30bfe1c5433bf5bba2a9868",
        "gas": "0xd390",
        "value": "0x0",
        "data": "0x3659cfe6000000000000000000000000b7957fe76c2feae66b57cf3191afd26d99ec5599",
        "nonce": "0x43"
      },
      "additionalContracts": []
    },
    {
      "hash": "0x3039e937779435e4c4eb5bb6c76c56137061bc180d3e561262f03b7e723d9a04",
      "transactionType": "CALL",
      "contractName": null,
      "contractAddress": "0x0F0fFF5EA56b0eA2246A926F13181e33Be9FbAEA",
      "function": "upgradeTo(address)",
      "arguments": [
        "0xB7957FE76c2fEAe66B57CF3191aFD26d99EC5599"
      ],
      "transaction": {
        "type": "0x00",
        "from": "0x2c10ac0e6b6c1619f4976b2ba559135bfef53c5e",
        "to": "0x0f0fff5ea56b0ea2246a926f13181e33be9fbaea",
        "gas": "0xd390",
        "value": "0x0",
        "data": "0x3659cfe6000000000000000000000000b7957fe76c2feae66b57cf3191afd26d99ec5599",
        "nonce": "0x44"
      },
      "additionalContracts": []
    },
    {
      "hash": "0x974064752265395b5ec92697a57e6305d01ef0c9550a1d9128820ef5314229d8",
      "transactionType": "CALL",
      "contractName": null,
      "contractAddress": "0xcba7864134e1A5326b817676ad5302A009c84d68",
      "function": "upgradeTo(address)",
      "arguments": [
        "0xB7957FE76c2fEAe66B57CF3191aFD26d99EC5599"
      ],
      "transaction": {
        "type": "0x00",
        "from": "0x2c10ac0e6b6c1619f4976b2ba559135bfef53c5e",
        "to": "0xcba7864134e1a5326b817676ad5302a009c84d68",
        "gas": "0xd390",
        "value": "0x0",
        "data": "0x3659cfe6000000000000000000000000b7957fe76c2feae66b57cf3191afd26d99ec5599",
        "nonce": "0x45"
      },
      "additionalContracts": []
    }
  ],
  "receipts": [
    {
      "transactionHash": "0xbed168cccca6c7d95ed897765c5f4b4d7955d29370e73deb5bb312bf0e255320",
      "transactionIndex": "0x0",
      "blockHash": "0x876aefbf432941188f860f5eb217a5f50a5e3221f063c18987c7b1ba790a1685",
      "blockNumber": "0x17351a6",
      "from": "0x2C10aC0E6B6c1619F4976b2ba559135BFeF53c5E",
      "to": null,
      "cumulativeGasUsed": "0x3feaf3",
      "gasUsed": "0x3feaf3",
      "contractAddress": "0xB7957FE76c2fEAe66B57CF3191aFD26d99EC5599",
      "logs": [],
      "status": "0x1",
      "logsBloom": "0x00000000000000000000000000000000000000000000000000000000000000000000000000000000000000000000000000000000000000000000000000000000000000000000000000000000000000000000000000000000000000000000000000000000000000000000000000000000000000000000000000000000000000000000000000000000000000000000000000000000000000000000000000000000000000000000000000000000000000000000000000000000000000000000000000000000000000000000000000000000000000000000000000000000000000000000000000000000000000000000000000000000000000000000000000000000"
    },
    {
      "transactionHash": "0x81fd30e442518487a6a0676688196f1f40e99a91d2550311201e479eb489e1e1",
      "transactionIndex": "0x0",
      "blockHash": "0x5b95ff805c7c4d421caf63850c0b9e9713874680977fead9a7bfb7470fed799a",
      "blockNumber": "0x17351de",
      "from": "0x2C10aC0E6B6c1619F4976b2ba559135BFeF53c5E",
      "to": "0x208e2D48b5A080E57792D8b175De914Ddb18F9a8",
      "cumulativeGasUsed": "0x992c",
      "gasUsed": "0x992c",
      "contractAddress": null,
      "logs": [
        {
          "address": "0x208e2D48b5A080E57792D8b175De914Ddb18F9a8",
          "topics": [
            "0xbc7cd75a20ee27fd9adebab32041f755214dbc6bffa90cc0225b39da2e5c2d3b",
            "0x000000000000000000000000b7957fe76c2feae66b57cf3191afd26d99ec5599"
          ],
          "data": "0x",
          "blockHash": "0x5b95ff805c7c4d421caf63850c0b9e9713874680977fead9a7bfb7470fed799a",
          "blockNumber": "0x17351de",
          "transactionHash": "0x81fd30e442518487a6a0676688196f1f40e99a91d2550311201e479eb489e1e1",
          "transactionIndex": "0x0",
          "logIndex": "0x0",
          "removed": false
        }
      ],
      "status": "0x1",
      "logsBloom": "0x00000000000000000000000000000000400008000000000000000000000000000004040000000000000000000000000000000000000000000000000000000000000020000000000000000000000002000000000000000000000000000000000000000000000000000000000000000000000000000000000000000000000000000000000000000000000000000000000000000000000000000000000000000000000000000000000040000000000000000000000000000000000000000000000000000020000000000000000000000000000000000000000000000000000000000000000000000000000000000000000000000000000000040000000000000000"
    },
    {
      "transactionHash": "0x38fe3e318c9e421d5f5ae3c9f737532366fc2448715c641210e606bc2af91158",
      "transactionIndex": "0x0",
      "blockHash": "0x16cb52be2367168afd7b886f8cb6b0d6770e554e8b16e557ba6f9c7ea6e2715e",
      "blockNumber": "0x173522a",
      "from": "0x2C10aC0E6B6c1619F4976b2ba559135BFeF53c5E",
      "to": "0xee9857e5e1d0089075F75ABe5255fc30695d09FA",
      "cumulativeGasUsed": "0x992c",
      "gasUsed": "0x992c",
      "contractAddress": null,
      "logs": [
        {
          "address": "0xee9857e5e1d0089075F75ABe5255fc30695d09FA",
          "topics": [
            "0xbc7cd75a20ee27fd9adebab32041f755214dbc6bffa90cc0225b39da2e5c2d3b",
            "0x000000000000000000000000b7957fe76c2feae66b57cf3191afd26d99ec5599"
          ],
          "data": "0x",
          "blockHash": "0x16cb52be2367168afd7b886f8cb6b0d6770e554e8b16e557ba6f9c7ea6e2715e",
          "blockNumber": "0x173522a",
          "transactionHash": "0x38fe3e318c9e421d5f5ae3c9f737532366fc2448715c641210e606bc2af91158",
          "transactionIndex": "0x0",
          "logIndex": "0x0",
          "removed": false
        }
      ],
      "status": "0x1",
      "logsBloom": "0x00000000000000000000000000000000400008000000000000000000000000000000000000000000000000000000000020000000000000000000000000000000000020000000000000000000000002000000000000000000000000000000000000000000008000000000000000000000000000000000000000000000000000000000000000000000000000000000000000000000000000000000000000000000000000000000000000000000000000000000000000000000000000000000000000000020000000000000000000000000000000000000000000000008000000000000000000000000000000000000000000000000000000040000000000000000"
    },
    {
      "transactionHash": "0x4ddfb45869018357bd3e63389cdc3bd0ad210d0ebb8630e1a552d200c5ab6d9f",
      "transactionIndex": "0x0",
      "blockHash": "0x9f6bacd13a580358f791c5ae39f3b148b95af7ad0172f66230f97cae09f6ff2f",
      "blockNumber": "0x173524f",
      "from": "0x2C10aC0E6B6c1619F4976b2ba559135BFeF53c5E",
      "to": "0x74f6C748E2DF1c89bf7ed29617A2B41b0f4f82A2",
      "cumulativeGasUsed": "0x992c",
      "gasUsed": "0x992c",
      "contractAddress": null,
      "logs": [
        {
          "address": "0x74f6C748E2DF1c89bf7ed29617A2B41b0f4f82A2",
          "topics": [
            "0xbc7cd75a20ee27fd9adebab32041f755214dbc6bffa90cc0225b39da2e5c2d3b",
            "0x000000000000000000000000b7957fe76c2feae66b57cf3191afd26d99ec5599"
          ],
          "data": "0x",
          "blockHash": "0x9f6bacd13a580358f791c5ae39f3b148b95af7ad0172f66230f97cae09f6ff2f",
          "blockNumber": "0x173524f",
          "transactionHash": "0x4ddfb45869018357bd3e63389cdc3bd0ad210d0ebb8630e1a552d200c5ab6d9f",
          "transactionIndex": "0x0",
          "logIndex": "0x0",
          "removed": false
        }
      ],
      "status": "0x1",
      "logsBloom": "0x00000000000000000000000000000000400008000000000000000000000000000000000000000000000000000000000000000000000000000000000000000000000020000000800000000000000002000000000000000000000000000000000000000000000000000000000000000000000000000000000000000000000000000000000000000000000000000000000000000000000000000000000000000000000000000000000000000000000000000000000000000000000000000000000000000020000000000000000000000000000000000000000000000000000000000000000000000000000000000000000000000000000000040040000000000400"
    },
    {
      "transactionHash": "0xc9eb437099abc9c7caaea0e09e34c9fa5a26365e9ed714b6de9e16745cf5e312",
      "transactionIndex": "0x0",
      "blockHash": "0xdf794979ae3a9d58f2b5470cac2666bab834263f3ba5a8d2bf4585e3d84f4008",
      "blockNumber": "0x1735269",
      "from": "0x2C10aC0E6B6c1619F4976b2ba559135BFeF53c5E",
      "to": "0x75633BFAbf0ee9036af06900b8f301Ed8ed29121",
      "cumulativeGasUsed": "0x992c",
      "gasUsed": "0x992c",
      "contractAddress": null,
      "logs": [
        {
          "address": "0x75633BFAbf0ee9036af06900b8f301Ed8ed29121",
          "topics": [
            "0xbc7cd75a20ee27fd9adebab32041f755214dbc6bffa90cc0225b39da2e5c2d3b",
            "0x000000000000000000000000b7957fe76c2feae66b57cf3191afd26d99ec5599"
          ],
          "data": "0x",
          "blockHash": "0xdf794979ae3a9d58f2b5470cac2666bab834263f3ba5a8d2bf4585e3d84f4008",
          "blockNumber": "0x1735269",
          "transactionHash": "0xc9eb437099abc9c7caaea0e09e34c9fa5a26365e9ed714b6de9e16745cf5e312",
          "transactionIndex": "0x0",
          "logIndex": "0x0",
          "removed": false
        }
      ],
      "status": "0x1",
      "logsBloom": "0x00000000000000000000000000000000400008000000000000000000000000000000000000000000000000000000000000000000000000000000000000000000000020000000000000000000000002000000000000000000000000000000000000000000000000000000000000000000000000000000001000000000000000000000000000000000000000000000000000000000000000000000000000000000000000000000000000000000001000000000000000200000000000000000000000000020000000000000000000000000000000000000000000000000000000000000000000000000000000000000000000000000000000040000000000000000"
    },
    {
      "transactionHash": "0x9199f2360bd4c9d86d5a8b05e28ca0113c113e1eb94d329de73b6bffb041b33e",
      "transactionIndex": "0x0",
      "blockHash": "0xc0f1e71af9becfb610b7facaa8de429762f3dae4b98b4bac3f52262fccec0583",
      "blockNumber": "0x173528f",
      "from": "0x2C10aC0E6B6c1619F4976b2ba559135BFeF53c5E",
      "to": "0xc23CF2762094a4Dd8DC3D4AaAAfdB38704B0f484",
      "cumulativeGasUsed": "0x992c",
      "gasUsed": "0x992c",
      "contractAddress": null,
      "logs": [
        {
          "address": "0xc23CF2762094a4Dd8DC3D4AaAAfdB38704B0f484",
          "topics": [
            "0xbc7cd75a20ee27fd9adebab32041f755214dbc6bffa90cc0225b39da2e5c2d3b",
            "0x000000000000000000000000b7957fe76c2feae66b57cf3191afd26d99ec5599"
          ],
          "data": "0x",
          "blockHash": "0xc0f1e71af9becfb610b7facaa8de429762f3dae4b98b4bac3f52262fccec0583",
          "blockNumber": "0x173528f",
          "transactionHash": "0x9199f2360bd4c9d86d5a8b05e28ca0113c113e1eb94d329de73b6bffb041b33e",
          "transactionIndex": "0x0",
          "logIndex": "0x0",
          "removed": false
        }
      ],
      "status": "0x1",
      "logsBloom": "0x00000000000000000000000000000000400008000000000000000000000000000000000000000000000000000000000000000000000000000000000000000000000020000000000000000000000002000000000000000000000000000000000000000000000000000000000000000000000000000000000000000000000000400000000000000000000000000000000000000000000000000002000000000000000000000000000000010000000000000000000000000000000000000000000000000020000000000000000000000000000000000000000000000000000000000000000000000000000000000000000000000000000000040000000000000000"
    },
    {
      "transactionHash": "0xe18f25eb48c21573212c84dc5ea51c5d15b83dd2498ddcd012ad1dc563eb9969",
      "transactionIndex": "0x0",
      "blockHash": "0x43310a883353b5fadf075ad2afc1897475fc2ee36592738f632ad66ae0aecb3f",
      "blockNumber": "0x17352b4",
      "from": "0x2C10aC0E6B6c1619F4976b2ba559135BFeF53c5E",
      "to": "0xC15d58452E7CC62F213534dcD1999EDcc4C56E53",
      "cumulativeGasUsed": "0x992c",
      "gasUsed": "0x992c",
      "contractAddress": null,
      "logs": [
        {
          "address": "0xC15d58452E7CC62F213534dcD1999EDcc4C56E53",
          "topics": [
            "0xbc7cd75a20ee27fd9adebab32041f755214dbc6bffa90cc0225b39da2e5c2d3b",
            "0x000000000000000000000000b7957fe76c2feae66b57cf3191afd26d99ec5599"
          ],
          "data": "0x",
          "blockHash": "0x43310a883353b5fadf075ad2afc1897475fc2ee36592738f632ad66ae0aecb3f",
          "blockNumber": "0x17352b4",
          "transactionHash": "0xe18f25eb48c21573212c84dc5ea51c5d15b83dd2498ddcd012ad1dc563eb9969",
          "transactionIndex": "0x0",
          "logIndex": "0x0",
          "removed": false
        }
      ],
      "status": "0x1",
      "logsBloom": "0x00000000000000000000000000010000400008000000000000000040000000000000000000000000000000000000000000000000000000000000000000000000000020000000000000000000000002000000000000000000000000000000000100000000000000000000000000000000000000000000000000000000000000000000000000000000000000000000000000000000000000000000000000000000000000000000000000000000000000000000000000000000000000000000000000000020000000000000000000000000000000000000000000000000000000000000000000000000000000000000000000000000000000040000000000000000"
    },
    {
      "transactionHash": "0x18eb12d4c07ac1c154fbdf963315ce758aa3eb0cbf640063747deeb461e1a034",
      "transactionIndex": "0x0",
      "blockHash": "0xe9e9faf1459812d516c1d3f17d498f9f326cd10c73cca6d25ecba6cc72535bd8",
      "blockNumber": "0x17352ea",
      "from": "0x2C10aC0E6B6c1619F4976b2ba559135BFeF53c5E",
      "to": "0xcaCdE37C8Aef43304e9d7153e668eDb7126Ff755",
      "cumulativeGasUsed": "0x992c",
      "gasUsed": "0x992c",
      "contractAddress": null,
      "logs": [
        {
          "address": "0xcaCdE37C8Aef43304e9d7153e668eDb7126Ff755",
          "topics": [
            "0xbc7cd75a20ee27fd9adebab32041f755214dbc6bffa90cc0225b39da2e5c2d3b",
            "0x000000000000000000000000b7957fe76c2feae66b57cf3191afd26d99ec5599"
          ],
          "data": "0x",
          "blockHash": "0xe9e9faf1459812d516c1d3f17d498f9f326cd10c73cca6d25ecba6cc72535bd8",
          "blockNumber": "0x17352ea",
          "transactionHash": "0x18eb12d4c07ac1c154fbdf963315ce758aa3eb0cbf640063747deeb461e1a034",
          "transactionIndex": "0x0",
          "logIndex": "0x0",
          "removed": false
        }
      ],
      "status": "0x1",
      "logsBloom": "0x00000000000000000000000000000000400008000000000000000000000000000000000000000000000000000000000000000000000000000000000000000000000020000000000000000000000002000000000000000000000000000000000000000000000000000000000000000000000000000000000000000000000000000000000000000000000000000000000000000000000000000000000000000000100004000000000000000000000000000000010000000000000000000000000000000020000000000000000000000000000000000000000000000000000000000000000000000000000000000000000000000000000000040000000000000000"
    },
    {
      "transactionHash": "0x2dfd3b89fe81bef6a59a89ef0282f4510430e870ef1e86fcab30dcd94d9cc683",
      "transactionIndex": "0x0",
      "blockHash": "0xa0bf3ba86a7823ecd5791c967d669ea8a01f6e4cab58ccdd45301c6a443898a5",
      "blockNumber": "0x173530e",
      "from": "0x2C10aC0E6B6c1619F4976b2ba559135BFeF53c5E",
      "to": "0xf12a8E2Fd857B134381c1B9F6027D4F0eE05295A",
      "cumulativeGasUsed": "0x992c",
      "gasUsed": "0x992c",
      "contractAddress": null,
      "logs": [
        {
          "address": "0xf12a8E2Fd857B134381c1B9F6027D4F0eE05295A",
          "topics": [
            "0xbc7cd75a20ee27fd9adebab32041f755214dbc6bffa90cc0225b39da2e5c2d3b",
            "0x000000000000000000000000b7957fe76c2feae66b57cf3191afd26d99ec5599"
          ],
          "data": "0x",
          "blockHash": "0xa0bf3ba86a7823ecd5791c967d669ea8a01f6e4cab58ccdd45301c6a443898a5",
          "blockNumber": "0x173530e",
          "transactionHash": "0x2dfd3b89fe81bef6a59a89ef0282f4510430e870ef1e86fcab30dcd94d9cc683",
          "transactionIndex": "0x0",
          "logIndex": "0x0",
          "removed": false
        }
      ],
      "status": "0x1",
      "logsBloom": "0x00000000000000000000000000000000400008000000000000000000000000000000000000000000000000000000000000000000000000000000000000000000000020000000000000000000000002000000000000000000000000000000000000000000000000000000000000000000000000000000000000010000000000000000000000000000000000000000000000000000000000000000000000000000000000000000000000000000000000100000000000000000000000000000000000000020000000000000000000000000000000000000000000000000000000000000000000000000000000000000000004000000000000040000000000000000"
    },
    {
      "transactionHash": "0xd404fe44c34db619727f6cac7a1b3c219c6243fae4396e5b2247cad1f22d5612",
      "transactionIndex": "0x0",
      "blockHash": "0xdcd8aa1dbe52331d5b65f84dab5fc92432a650276ea9e34c51619c7af1ba2d00",
      "blockNumber": "0x173535d",
      "from": "0x2C10aC0E6B6c1619F4976b2ba559135BFeF53c5E",
      "to": "0x52671440732589E3027517E22c49ABc04941CF2F",
      "cumulativeGasUsed": "0x992c",
      "gasUsed": "0x992c",
      "contractAddress": null,
      "logs": [
        {
          "address": "0x52671440732589E3027517E22c49ABc04941CF2F",
          "topics": [
            "0xbc7cd75a20ee27fd9adebab32041f755214dbc6bffa90cc0225b39da2e5c2d3b",
            "0x000000000000000000000000b7957fe76c2feae66b57cf3191afd26d99ec5599"
          ],
          "data": "0x",
          "blockHash": "0xdcd8aa1dbe52331d5b65f84dab5fc92432a650276ea9e34c51619c7af1ba2d00",
          "blockNumber": "0x173535d",
          "transactionHash": "0xd404fe44c34db619727f6cac7a1b3c219c6243fae4396e5b2247cad1f22d5612",
          "transactionIndex": "0x0",
          "logIndex": "0x0",
          "removed": false
        }
      ],
      "status": "0x1",
      "logsBloom": "0x00000000000000000000000000000000400008000000000000000000000000000000000000000000000000000000000000000000000000000000000000000000000020000000000000000000000002000000000004000000000000000000000000000000000000000000000000000000000000000000000000000000000000000000000000000000000000000000000000000000000400000000000000000000000000000000000000000000000000000000000000000000000000000000000000000020000000000000000000000000000000000000000000000000000000000000000000000000000000000000000002000000000000040000000000000000"
    },
    {
      "transactionHash": "0x38616f3d8ab948cf3fcfe449047e778a9c7b3ccb92cdbf68db9323b492e019a1",
      "transactionIndex": "0x0",
      "blockHash": "0x01e3b13b4aacc5b121554a1b60d98e0648dfd3c9806ded54cba9651944b59471",
      "blockNumber": "0x1735387",
      "from": "0x2C10aC0E6B6c1619F4976b2ba559135BFeF53c5E",
      "to": "0x3BD8d78d77dfA391c5F73c10aDeaAdD9a7f7198C",
      "cumulativeGasUsed": "0x992c",
      "gasUsed": "0x992c",
      "contractAddress": null,
      "logs": [
        {
          "address": "0x3BD8d78d77dfA391c5F73c10aDeaAdD9a7f7198C",
          "topics": [
            "0xbc7cd75a20ee27fd9adebab32041f755214dbc6bffa90cc0225b39da2e5c2d3b",
            "0x000000000000000000000000b7957fe76c2feae66b57cf3191afd26d99ec5599"
          ],
          "data": "0x",
          "blockHash": "0x01e3b13b4aacc5b121554a1b60d98e0648dfd3c9806ded54cba9651944b59471",
          "blockNumber": "0x1735387",
          "transactionHash": "0x38616f3d8ab948cf3fcfe449047e778a9c7b3ccb92cdbf68db9323b492e019a1",
          "transactionIndex": "0x0",
          "logIndex": "0x0",
          "removed": false
        }
      ],
      "status": "0x1",
      "logsBloom": "0x00010000000000000000000000000000400008000000000000000000000000000000000000000000000000000000000000000000000000000000000000000000000020000000000000000000000002000000000000000000000000000000000000000000000000000000000000000000000000000000000000000000000000000000000000040000000000000000000000000000000000000000000000000000000000000000000000000000000000000000000000000000000000000000000000000020000000000000000000000000000000000000000001000000000000000000000000000000000000000000000000000000000000040000000000000000"
    },
    {
      "transactionHash": "0xb6a626d1025c5cd8e07296959d5ed14c65d7bc32e30cfd06d0a01fd70bbc3eac",
      "transactionIndex": "0x0",
      "blockHash": "0xe651f47e4dd34882906c30e93edc68c9d700c54d183c3cbfc7459ef043d12bfd",
      "blockNumber": "0x17353b4",
      "from": "0x2C10aC0E6B6c1619F4976b2ba559135BFeF53c5E",
      "to": "0x2510E5054eeEbED40C3C580ae3241F5457b630D9",
      "cumulativeGasUsed": "0x992c",
      "gasUsed": "0x992c",
      "contractAddress": null,
      "logs": [
        {
          "address": "0x2510E5054eeEbED40C3C580ae3241F5457b630D9",
          "topics": [
            "0xbc7cd75a20ee27fd9adebab32041f755214dbc6bffa90cc0225b39da2e5c2d3b",
            "0x000000000000000000000000b7957fe76c2feae66b57cf3191afd26d99ec5599"
          ],
          "data": "0x",
          "blockHash": "0xe651f47e4dd34882906c30e93edc68c9d700c54d183c3cbfc7459ef043d12bfd",
          "blockNumber": "0x17353b4",
          "transactionHash": "0xb6a626d1025c5cd8e07296959d5ed14c65d7bc32e30cfd06d0a01fd70bbc3eac",
          "transactionIndex": "0x0",
          "logIndex": "0x0",
          "removed": false
        }
      ],
      "status": "0x1",
      "logsBloom": "0x00000000000000000000000000000000400008000000800000000000000000000000000000000000000000000000000000000000000000000000000000000000000020000000000000000000010002000000000000000000000000000000000000000000000000000000000000000000000000000000000000000000000000000000000000000000000000000000000000000000000000000000000000000000000000000000000000000000000000000000000000000000000000000000000000000020000000000000000000080000000000000000000000000000000000000000000000000000000000000000000000000000000000040000000000000000"
    },
    {
      "transactionHash": "0xc1237eab142702f91666e076c0c095d25262a648e1700a49d0eb4d7690ac5105",
      "transactionIndex": "0x0",
      "blockHash": "0xd76da9a52a889f259ca8053a9438fd7c4ae6d1e6bde45e6c974dcd6fd20305d0",
      "blockNumber": "0x17353ce",
      "from": "0x2C10aC0E6B6c1619F4976b2ba559135BFeF53c5E",
      "to": "0xFAcB839BF8f09f2e7B4b6C83349B5bbFD62fd659",
      "cumulativeGasUsed": "0x992c",
      "gasUsed": "0x992c",
      "contractAddress": null,
      "logs": [
        {
          "address": "0xFAcB839BF8f09f2e7B4b6C83349B5bbFD62fd659",
          "topics": [
            "0xbc7cd75a20ee27fd9adebab32041f755214dbc6bffa90cc0225b39da2e5c2d3b",
            "0x000000000000000000000000b7957fe76c2feae66b57cf3191afd26d99ec5599"
          ],
          "data": "0x",
          "blockHash": "0xd76da9a52a889f259ca8053a9438fd7c4ae6d1e6bde45e6c974dcd6fd20305d0",
          "blockNumber": "0x17353ce",
          "transactionHash": "0xc1237eab142702f91666e076c0c095d25262a648e1700a49d0eb4d7690ac5105",
          "transactionIndex": "0x0",
          "logIndex": "0x0",
          "removed": false
        }
      ],
      "status": "0x1",
      "logsBloom": "0x00000000000000000000000000000000400008000010000000000000000000000000000000000000000000000000000000000000000000000000000000000000000020000000000000000000000002000000000000000000000000000000000000000000000000000000000000000000000000000000000000000000000000000000000000000000000000000000000000000000000000000000000080000000000000000000000000000000040000000000000000000000000000000000000000000020000000000000000000000000000000000000000000000000000000000000000000000000000000000000000000000000000000040000000000000000"
    },
    {
      "transactionHash": "0xfc6e35b9328e30468290610181758faa637f25553b5d9a9a51f2196402df8da9",
      "transactionIndex": "0x0",
      "blockHash": "0x5d7edf0ce46b0f846b7cef630cf90db48722118818224a4e06c7329da831bce0",
      "blockNumber": "0x17353ee",
      "from": "0x2C10aC0E6B6c1619F4976b2ba559135BFeF53c5E",
      "to": "0xa0Ea9A553cB47658e62Dee4D7b49F7c8Da234B69",
      "cumulativeGasUsed": "0x992c",
      "gasUsed": "0x992c",
      "contractAddress": null,
      "logs": [
        {
          "address": "0xa0Ea9A553cB47658e62Dee4D7b49F7c8Da234B69",
          "topics": [
            "0xbc7cd75a20ee27fd9adebab32041f755214dbc6bffa90cc0225b39da2e5c2d3b",
            "0x000000000000000000000000b7957fe76c2feae66b57cf3191afd26d99ec5599"
          ],
          "data": "0x",
          "blockHash": "0x5d7edf0ce46b0f846b7cef630cf90db48722118818224a4e06c7329da831bce0",
          "blockNumber": "0x17353ee",
          "transactionHash": "0xfc6e35b9328e30468290610181758faa637f25553b5d9a9a51f2196402df8da9",
          "transactionIndex": "0x0",
          "logIndex": "0x0",
          "removed": false
        }
      ],
      "status": "0x1",
      "logsBloom": "0x00000000000000000000000000000000400008000000000000000000000000000000000000000000000000000000000800000000000000000000000040000000000020000000000000000000000002000000000000000000000000000000000000000000100000000000000000000000000000000000000000000000000000000000000000000000000000000000000000000000000000000000000000000000000000000000000000000000000000000000000000000000000000000000000000000020000000000000000000000000000000000000000000000000000000000000000000000000000000000000000000000000000000040000000000000000"
    },
    {
      "transactionHash": "0xdcd08a679a42e0a87986d001cf4a435bf730a410a40d8d0e7dc8d4874028d923",
      "transactionIndex": "0x0",
      "blockHash": "0x9b5f28087b5ab9bab26e65342b24985ac45261eaa91f26522d64d3d7511e28ca",
      "blockNumber": "0x1735407",
      "from": "0x2C10aC0E6B6c1619F4976b2ba559135BFeF53c5E",
      "to": "0xd0f9990a611018b5b30BFE1C5433bf5bba2a9868",
      "cumulativeGasUsed": "0x992c",
      "gasUsed": "0x992c",
      "contractAddress": null,
      "logs": [
        {
          "address": "0xd0f9990a611018b5b30BFE1C5433bf5bba2a9868",
          "topics": [
            "0xbc7cd75a20ee27fd9adebab32041f755214dbc6bffa90cc0225b39da2e5c2d3b",
            "0x000000000000000000000000b7957fe76c2feae66b57cf3191afd26d99ec5599"
          ],
          "data": "0x",
          "blockHash": "0x9b5f28087b5ab9bab26e65342b24985ac45261eaa91f26522d64d3d7511e28ca",
          "blockNumber": "0x1735407",
          "transactionHash": "0xdcd08a679a42e0a87986d001cf4a435bf730a410a40d8d0e7dc8d4874028d923",
          "transactionIndex": "0x0",
          "logIndex": "0x0",
          "removed": false
        }
      ],
      "status": "0x1",
      "logsBloom": "0x00000000000000000000000000000000400008000000000000000000000000000000000000000000000000000000000000000000000000000000000100000000000020000000000000000000000002000000000000000000000000000000000000000000000000000000000000000000000000000040000000000000000000000000000000000000000000000000000000000000000000000000000000000000000000000000000000000000000000000000000000000000100000000000000000000020000000000000000000000000000000000000000000000000000000000000000000000000000000000000000000000000000000040000000000000000"
    },
    {
      "transactionHash": "0x3039e937779435e4c4eb5bb6c76c56137061bc180d3e561262f03b7e723d9a04",
      "transactionIndex": "0x0",
      "blockHash": "0x8484cb060ea9d7ae3cef456bcd4f82b2a1a67dab5b5d7655ba30efa1f0b55dee",
      "blockNumber": "0x1735451",
      "from": "0x2C10aC0E6B6c1619F4976b2ba559135BFeF53c5E",
      "to": "0x0F0fFF5EA56b0eA2246A926F13181e33Be9FbAEA",
      "cumulativeGasUsed": "0x992c",
      "gasUsed": "0x992c",
      "contractAddress": null,
      "logs": [
        {
          "address": "0x0F0fFF5EA56b0eA2246A926F13181e33Be9FbAEA",
          "topics": [
            "0xbc7cd75a20ee27fd9adebab32041f755214dbc6bffa90cc0225b39da2e5c2d3b",
            "0x000000000000000000000000b7957fe76c2feae66b57cf3191afd26d99ec5599"
          ],
          "data": "0x",
          "blockHash": "0x8484cb060ea9d7ae3cef456bcd4f82b2a1a67dab5b5d7655ba30efa1f0b55dee",
          "blockNumber": "0x1735451",
          "transactionHash": "0x3039e937779435e4c4eb5bb6c76c56137061bc180d3e561262f03b7e723d9a04",
          "transactionIndex": "0x0",
          "logIndex": "0x0",
          "removed": false
        }
      ],
      "status": "0x1",
      "logsBloom": "0x00000000000000000000000000000000400008004000000000000000000000000000000000000000000000000000000000000000000000000000000000000000000020000000000000000000000002000000000000000000000000000000000000000000000000000000000000000000000000000000000000000000000000000000000000000000000000000000000000000000000000000000000000000000000000000000000000000000000000000000000000000000000000000000000000000020000000000000000000000000000000000000000000000000000000000000000000000000000000000000040000000000000080040000000000000000"
    },
    {
      "transactionHash": "0x974064752265395b5ec92697a57e6305d01ef0c9550a1d9128820ef5314229d8",
      "transactionIndex": "0x0",
      "blockHash": "0xe2395d0af1c23962049959e95de3f02b9c91bce02cb66c267fa2262041c5af3c",
      "blockNumber": "0x173549f",
      "from": "0x2C10aC0E6B6c1619F4976b2ba559135BFeF53c5E",
      "to": "0xcba7864134e1A5326b817676ad5302A009c84d68",
      "cumulativeGasUsed": "0x992c",
      "gasUsed": "0x992c",
      "contractAddress": null,
      "logs": [
        {
          "address": "0xcba7864134e1A5326b817676ad5302A009c84d68",
          "topics": [
            "0xbc7cd75a20ee27fd9adebab32041f755214dbc6bffa90cc0225b39da2e5c2d3b",
            "0x000000000000000000000000b7957fe76c2feae66b57cf3191afd26d99ec5599"
          ],
          "data": "0x",
          "blockHash": "0xe2395d0af1c23962049959e95de3f02b9c91bce02cb66c267fa2262041c5af3c",
          "blockNumber": "0x173549f",
          "transactionHash": "0x974064752265395b5ec92697a57e6305d01ef0c9550a1d9128820ef5314229d8",
          "transactionIndex": "0x0",
          "logIndex": "0x0",
          "removed": false
        }
      ],
      "status": "0x1",
      "logsBloom": "0x00000000000000000000000000000000400008000000000000000000000000000000000000000000000000000000000000000000000000000000000000000000000024000000000000000000000002000000000000000000000000000000000000000000000000000000000000000000000000000400000000000000000000000000000000000000000000000000000000000000000000000000000000000000000000000000000000000000000000000000000000000000000000000000000000000020008000000000000000000000000000000000000000000000000000000000000000000000000000000000000000000000000000040000000000000000"
    }
  ],
  "libraries": [],
  "pending": [],
  "path": "/Users/siew/PowerbombFinance/powerbomb-foundry/broadcast/Upgrade.sol/10/run-latest.json",
  "returns": {},
  "timestamp": 1663787940,
  "commit": "4d335bc"
}