{
  "transactions": [
    {
      "hash": "0x2178404870188ff3625c1408f6377fa8ac977c878cb0df4ae342df85516f140a",
      "transactionType": "CREATE",
      "contractName": "PbVelo",
      "contractAddress": "0x0D5D900eE9b801E3C32ED9D9ed6fe1ec994F692F",
      "function": null,
      "arguments": null,
      "transaction": {
        "type": "0x00",
        "from": "0x2c10ac0e6b6c1619f4976b2ba559135bfef53c5e",
        "gas": "0x5ef530",
        "value": "0x0",
        "data": "0x60a06040523060805234801561001457600080fd5b506080516155a961004c60003960008181610694015281816106dd01528181611365015281816113a501526114cb01526155a96000f3fe6080604052600436106102085760003560e01c8063715018a611610118578063bd244af4116100a0578063d21220a71161006f578063d21220a7146105fd578063e15155c71461061e578063f0f4426014610635578063f290582614610655578063f2fde38b1461066a57600080fd5b8063bd244af414610595578063c0c53b8b146105aa578063c6710629146105ca578063ce88b439146105ea57600080fd5b8063a6f19c84116100e7578063a6f19c8414610508578063b1a4108514610529578063b5c5f67214610540578063ba63301714610560578063bac152031461058057600080fd5b8063715018a6146104a05780638da5cb5b146104b55780639d0014b1146104d3578063a20a4cb4146104f357600080fd5b8063477348921161019b57806352d1902d1161016a57806352d1902d1461041c5780635c975abb146104315780635fcbd28514610449578063616094a71461046a57806361d027b31461047f57600080fd5b8063477348921461039d5780634e71d92d146103d45780634f1ef286146103e95780634fefd8b5146103fc57600080fd5b806322be3de1116101d757806322be3de11461031f5780633659cfe614610351578063439766ce146103735780634641257d1461038857600080fd5b80630445b667146102145780630dfe16811461023e5780631959a00214610277578063228cb733146102c157600080fd5b3661020f57005b600080fd5b34801561022057600080fd5b5061022b6101395481565b6040519081526020015b60405180910390f35b34801561024a57600080fd5b5061012d5461025f906001600160a01b031681565b6040516001600160a01b039091168152602001610235565b34801561028357600080fd5b506102ac610292366004614b3d565b610137602052600090815260409020805460019091015482565b60408051928352602083019190915201610235565b3480156102cd57600080fd5b50610133546101345461013554610136546102f4936001600160a01b039081169316919084565b604080516001600160a01b039586168152949093166020850152918301526060820152608001610235565b34801561032b57600080fd5b506101305461034190600160a01b900460ff1681565b6040519015158152602001610235565b34801561035d57600080fd5b5061037161036c366004614b3d565b61068a565b005b34801561037f57600080fd5b50610371610772565b34801561039457600080fd5b50610371610784565b3480156103a957600080fd5b5061022b6103b8366004614b3d565b6001600160a01b03166000908152610137602052604090205490565b3480156103e057600080fd5b5061037161104c565b6103716103f7366004614ba1565b61135b565b34801561040857600080fd5b50610371610417366004614c49565b61142b565b34801561042857600080fd5b5061022b6114be565b34801561043d57600080fd5b5060fb5460ff16610341565b34801561045557600080fd5b5061012f5461025f906001600160a01b031681565b34801561047657600080fd5b5061022b611571565b34801561048b57600080fd5b506101315461025f906001600160a01b031681565b3480156104ac57600080fd5b5061037161167d565b3480156104c157600080fd5b506033546001600160a01b031661025f565b3480156104df57600080fd5b506103716104ee366004614c49565b61168f565b3480156104ff57600080fd5b5061022b6116da565b34801561051457600080fd5b506101305461025f906001600160a01b031681565b34801561053557600080fd5b5061022b6101325481565b34801561054c57600080fd5b5061022b61055b366004614c62565b611748565b34801561056c57600080fd5b5061022b61057b366004614b3d565b611cb4565b34801561058c57600080fd5b50610371611cfb565b3480156105a157600080fd5b5061022b611d0b565b3480156105b657600080fd5b506103716105c5366004614c97565b611d53565b3480156105d657600080fd5b5061022b6105e5366004614b3d565b61237d565b6103716105f8366004614ce2565b6123cf565b34801561060957600080fd5b5061012e5461025f906001600160a01b031681565b34801561062a57600080fd5b5061022b61013a5481565b34801561064157600080fd5b50610371610650366004614b3d565b6131b3565b34801561066157600080fd5b5061022b613226565b34801561067657600080fd5b50610371610685366004614b3d565b6132c2565b6001600160a01b037f00000000000000000000000000000000000000000000000000000000000000001630036106db5760405162461bcd60e51b81526004016106d290614d1d565b60405180910390fd5b7f00000000000000000000000000000000000000000000000000000000000000006001600160a01b031661072460008051602061552d833981519152546001600160a01b031690565b6001600160a01b03161461074a5760405162461bcd60e51b81526004016106d290614d69565b61075381613338565b6040805160008082526020820190925261076f91839190613340565b50565b61077a6134b0565b61078261350a565b565b600061078e6116da565b610134546040516370a0823160e01b81523060048201529192506000916001600160a01b03909116906370a0823190602401602060405180830381865afa1580156107dd573d6000803e3d6000fd5b505050506040513d601f19601f820116820180604052508101906108019190614db5565b6101355490915081111561086657610135546000906108209083614de4565b90508261083c826ec097ce7bc90715b34b9f1000000000614dfb565b6108469190614e1a565b6101368054600090610859908490614e3c565b9091555050506101358190555b604080516002808252606082018352600092602083019080368337019050509050733c8b650257cfb5f272f799f5e2b4e65093a11a05816000815181106108af576108af614e54565b60200260200101906001600160a01b031690816001600160a01b0316815250506042602160991b01816001815181106108ea576108ea614e54565b6001600160a01b039283166020918202929092010152610130546040516331279d3d60e01b81529116906331279d3d9061092a9030908590600401614eae565b600060405180830381600087803b15801561094457600080fd5b505af1158015610958573d6000803e3d6000fd5b5060009250600191506109689050565b604051908082528060200260200182016040528015610991578160200160208202803683370190505b506101345481519192506001600160a01b03169082906000906109b6576109b6614e54565b6001600160a01b03909216602092830291909101909101526040516308d8c03760e21b815273929ec64c34a17401f460460d4b9390518e5b473e9063236300dc90610a149084906000199030906042602160991b0190600401614ed2565b6020604051808303816000875af1158015610a33573d6000803e3d6000fd5b505050506040513d601f19601f82011682018060405250810190610a579190614db5565b506040516370a0823160e01b8152306004820152600090733c8b650257cfb5f272f799f5e2b4e65093a11a05906370a0823190602401602060405180830381865afa158015610aaa573d6000803e3d6000fd5b505050506040513d601f19601f82011682018060405250810190610ace9190614db5565b90506000610af882733c8b650257cfb5f272f799f5e2b4e65093a11a056006602160991b01613564565b6040516370a0823160e01b81523060048201529091506000906042602160991b01906370a0823190602401602060405180830381865afa158015610b40573d6000803e3d6000fd5b505050506040513d601f19601f82011682018060405250810190610b649190614db5565b9050610b7f816042602160991b016006602160991b01613564565b610b899083614e3c565b91506101395482111561104357610bc0733c8b650257cfb5f272f799f5e2b4e65093a11a056006602160991b0160008660006135f3565b610133549092506001600160a01b03166000805160206154ed83398151915214610c0e57610c016042602160991b016006602160991b0160008460006135f3565b610c0b9083614e3c565b91505b610133546000906001600160a01b03167368f180fcce6836688e9084f035309e29bf0a20941901610de05760408051600280825260608201909252600091816020015b6040805160608101825260008082526020808301829052928201528252600019909201910181610c51575050604080516060810182526006602160991b0181526000805160206154ed83398151915260208201526000918101829052825192935091839190610cc257610cc2614e54565b602002602001018190525060405180606001604052806000805160206154ed8339815191526001600160a01b031681526020017368f180fcce6836688e9084f035309e29bf0a20956001600160a01b031681526020016000151581525081600181518110610d3257610d32614e54565b6020908102919091010152604051631e82ecdb60e31b815260008051602061550d8339815191529063f41766d890610d77908790600090869030904290600401614f5f565b6000604051808303816000875af1158015610d96573d6000803e3d6000fd5b505050506040513d6000823e601f3d908101601f19168201604052610dbe9190810190614f9b565b600281518110610dd057610dd0614e54565b6020026020010151915050610e65565b610133546001600160a01b0316737f5c764cbc14f9669b88837ca1490cca17c316061901610e625761013354610e2b906006602160991b01906001600160a01b0316600086816135f3565b61013354909150610e51906042602160991b01906001600160a01b0316600085816135f3565b610e5b9082614e3c565b9050610e65565b50815b60006127106101325483610e799190614dfb565b610e839190614e1a565b9050610e8f8183614de4565b6101315461013354919350610eb1916001600160a01b039081169116836136d1565b88610ecb836ec097ce7bc90715b34b9f1000000000614dfb565b610ed59190614e1a565b6101368054600090610ee8908490614e3c565b90915550506101335460405163617ba03760e01b81526001600160a01b039091166004820152602481018390523060448201526000606482015273794a61358d6845594f94dc1db02a252b5b4814ad9063617ba03790608401600060405180830381600087803b158015610f5b57600080fd5b505af1158015610f6f573d6000803e3d6000fd5b5050610134546040516370a0823160e01b81523060048201526001600160a01b0390911692506370a082319150602401602060405180830381865afa158015610fbc573d6000803e3d6000fd5b505050506040513d601f19601f82011682018060405250810190610fe09190614db5565b6101355561013a8054839190600090610ffa908490614e3c565b909155505060408051868152602081018490529081018290527f4ec2d4038813a7f233af1d6d09519189db3ed5bc5b823bf72f6d3144574721de9060600160405180910390a150505b50505050505050565b611054613734565b61105c610784565b33600090815261013760205260409020805415611350576001810154610136548254600092916ec097ce7bc90715b34b9f10000000009161109d9190614dfb565b6110a79190614e1a565b6110b19190614de4565b9050801561134e57808260010160008282546110cd9190614e3c565b9091555050610134546040516370a0823160e01b81523060048201526000916001600160a01b0316906370a0823190602401602060405180830381865afa15801561111c573d6000803e3d6000fd5b505050506040513d601f19601f820116820180604052508101906111409190614db5565b9050818111156111ce5761013354604051631a4ca37b60e21b81526001600160a01b0390911660048201526024810183905230604482015273794a61358d6845594f94dc1db02a252b5b4814ad906369328dec90606401600060405180830381600087803b1580156111b157600080fd5b505af11580156111c5573d6000803e3d6000fd5b5050505061124e565b61013354604051631a4ca37b60e21b81526001600160a01b0390911660048201526024810182905230604482015273794a61358d6845594f94dc1db02a252b5b4814ad906369328dec90606401600060405180830381600087803b15801561123557600080fd5b505af1158015611249573d6000803e3d6000fd5b505050505b6101355482101561127a5781610133600201600082825461126f9190614de4565b909155506112819050565b6000610135555b610133546040516370a0823160e01b81523060048201526000916001600160a01b0316906370a0823190602401602060405180830381865afa1580156112cb573d6000803e3d6000fd5b505050506040513d601f19601f820116820180604052508101906112ef9190614db5565b6101335490915061130a906001600160a01b031633836136d1565b60408051338152602081018590529081018290527f34fcbac0073d7c3d388e51312faf357774904998eeb8fca628b9e6f65ee1cbf79060600160405180910390a150505b505b50610782600160c955565b6001600160a01b037f00000000000000000000000000000000000000000000000000000000000000001630036113a35760405162461bcd60e51b81526004016106d290614d1d565b7f00000000000000000000000000000000000000000000000000000000000000006001600160a01b03166113ec60008051602061552d833981519152546001600160a01b031690565b6001600160a01b0316146114125760405162461bcd60e51b81526004016106d290614d69565b61141b82613338565b61142782826001613340565b5050565b6114336134b0565b6103e881111561147b5760405162461bcd60e51b81526020600482015260136024820152724665652063616e6e6f74206f7665722031302560681b60448201526064016106d2565b6101325460408051918252602082018390527fed33bc5aae0e2d4ddd9c708d2d82e03ee27775bea3c8a61ee57bd9528273d9d9910160405180910390a161013255565b6000306001600160a01b037f0000000000000000000000000000000000000000000000000000000000000000161461155e5760405162461bcd60e51b815260206004820152603860248201527f555550535570677261646561626c653a206d757374206e6f742062652063616c60448201527f6c6564207468726f7567682064656c656761746563616c6c000000000000000060648201526084016106d2565b5060008051602061552d83398151915290565b6040516370a0823160e01b8152306004820152600090733c8b650257cfb5f272f799f5e2b4e65093a11a05906370a0823190602401602060405180830381865afa1580156115c3573d6000803e3d6000fd5b505050506040513d601f19601f820116820180604052508101906115e79190614db5565b6101305460405163211dc32d60e01b8152733c8b650257cfb5f272f799f5e2b4e65093a11a0560048201523060248201526001600160a01b039091169063211dc32d90604401602060405180830381865afa15801561164a573d6000803e3d6000fd5b505050506040513d601f19601f8201168201806040525081019061166e9190614db5565b6116789190614e3c565b905090565b6116856134b0565b610782600061378d565b6116976134b0565b6101395460408051918252602082018390527fb7b89c3d5d1358735329a05968ba8aa530205e9ed59cfdbcb6c1ac434cf31459910160405180910390a161013955565b610130546040516370a0823160e01b81523060048201526000916001600160a01b0316906370a0823190602401602060405180830381865afa158015611724573d6000803e3d6000fd5b505050506040513d601f19601f820116820180604052508101906116789190614db5565b6000611752613734565b61012d546001600160a01b038581169116148061177d575061012e546001600160a01b038581169116145b80611796575061012f546001600160a01b038581169116145b6117d25760405162461bcd60e51b815260206004820152600d60248201526c24b73b30b634b2103a37b5b2b760991b60448201526064016106d2565b3360009081526101376020526040902083158015906117f2575080548411155b61184a5760405162461bcd60e51b8152602060048201526024808201527f496e76616c696420616d6f756e744f75744c70546f6b656e20746f20776974686044820152636472617760e01b60648201526084016106d2565b33600090815261013860205260409020544390036118b65760405162461bcd60e51b8152602060048201526024808201527f4e6f7420616c6c6f772077697468647261772077697468696e2073616d6520626044820152636c6f636b60e01b60648201526084016106d2565b6118be610784565b80546118cb908590614de4565b808255610136546ec097ce7bc90715b34b9f1000000000916118ed9190614dfb565b6118f79190614e1a565b600182015561013054604051632e1a7d4d60e01b8152600481018690526001600160a01b0390911690632e1a7d4d90602401600060405180830381600087803b15801561194357600080fd5b505af1158015611957573d6000803e3d6000fd5b505061012f546001600160a01b038881169116149150611add90505761012d5461012e546101305460405163037b79b160e21b81526001600160a01b039384166004820152929091166024830152600160a01b900460ff16151560448201526064810185905260006084820181905260a482018190523060c48301524260e483015290819060008051602061550d83398151915290630dede6c4906101040160408051808303816000875af1158015611a14573d6000803e3d6000fd5b505050506040513d601f19601f82011682018060405250810190611a389190615041565b61012d5491935091506001600160a01b0390811690881603611a975761012e5461012d5461013054611a83926001600160a01b03908116921690600160a01b900460ff1684896135f3565b611a8d9083614e3c565b9150819350611ad6565b61012d5461012e5461013054611ac6926001600160a01b03908116921690600160a01b900460ff1685896135f3565b611ad09082614e3c565b90508093505b5050611ae1565b8391505b6005602160991b01196001600160a01b03861601611c4b576040516370a0823160e01b81523060048201526006602160991b0190632e1a7d4d9082906370a0823190602401602060405180830381865afa158015611b43573d6000803e3d6000fd5b505050506040513d601f19601f82011682018060405250810190611b679190614db5565b6040518263ffffffff1660e01b8152600401611b8591815260200190565b600060405180830381600087803b158015611b9f57600080fd5b505af1158015611bb3573d6000803e3d6000fd5b50506040516000925033915047908381818185875af1925050503d8060008114611bf9576040519150601f19603f3d011682016040523d82523d6000602084013e611bfe565b606091505b5050905080611c455760405162461bcd60e51b8152602060048201526013602482015272115512081d1c985b9cd9995c8819985a5b1959606a1b60448201526064016106d2565b50611c5f565b611c5f6001600160a01b03861633846136d1565b846001600160a01b03167f884edad9ce6fa2440d8a54cc123490eb96d2768479d49ff9c7366125a942436483604051611c9a91815260200190565b60405180910390a250611cad600160c955565b9392505050565b6000670de0b6b3a7640000611cc7613226565b6001600160a01b03841660009081526101376020526040902054611ceb9190614dfb565b611cf59190614e1a565b92915050565b611d036134b0565b6107826137df565b600080611d166116da565b905080600003611d2857600091505090565b670de0b6b3a7640000611d39613226565b611d439083614dfb565b611d4d9190614e1a565b91505090565b600054610100900460ff1615808015611d735750600054600160ff909116105b80611d8d5750303b158015611d8d575060005460ff166001145b611df05760405162461bcd60e51b815260206004820152602e60248201527f496e697469616c697a61626c653a20636f6e747261637420697320616c72656160448201526d191e481a5b9a5d1a585b1a5e995960921b60648201526084016106d2565b6000805460ff191660011790558015611e13576000805461ff0019166101001790555b611e1b613818565b61013080546001600160a01b0319166001600160a01b03861690811790915560408051633a4b66f160e01b8152905160009291633a4b66f19160048083019260209291908290030181865afa158015611e78573d6000803e3d6000fd5b505050506040513d601f19601f82011682018060405250810190611e9c9190615065565b61012f80546001600160a01b0319166001600160a01b03831690811790915560408051634eb1c24560e11b81528151939450600093849392639d63848a92600480820193918290030181865afa158015611efa573d6000803e3d6000fd5b505050506040513d601f19601f82011682018060405250810190611f1e9190615082565b61012d80546001600160a01b038085166001600160a01b03199283161790925561012e8054838516921691909117905561012f54604080516322be3de160e01b8152905194965092945016916322be3de1916004808201926020929091908290030181865afa158015611f95573d6000803e3d6000fd5b505050506040513d601f19601f82011682018060405250810190611fb991906150d1565b610130805460ff60a01b1916600160a01b9215159290920291909117905561013380546001600160a01b0319166001600160a01b0388169081179091556040516335ea6a7560e01b8152600481019190915260009073794a61358d6845594f94dc1db02a252b5b4814ad906335ea6a759060240161012060405180830381865afa15801561204b573d6000803e3d6000fd5b505050506040513d601f19601f8201168201806040525081019061206f919061510c565b985050505050505050508061013360010160006101000a8154816001600160a01b0302191690836001600160a01b031602179055508561013160006101000a8154816001600160a01b0302191690836001600160a01b0316021790555060326101328190555061211960008051602061550d83398151915260001961012d60009054906101000a90046001600160a01b03166001600160a01b03166138479092919063ffffffff16565b61012e54612141906001600160a01b031660008051602061550d833981519152600019613847565b61012f54612169906001600160a01b031660008051602061550d833981519152600019613847565b6101305461012f5461218a916001600160a01b039182169116600019613847565b6121b9733c8b650257cfb5f272f799f5e2b4e65093a11a0560008051602061550d833981519152600019613847565b610133546121e7906001600160a01b031673794a61358d6845594f94dc1db02a252b5b4814ad600019613847565b604051636eb1769f60e11b815230600482015260008051602061550d83398151915260248201526006602160991b019063dd62ed3e90604401602060405180830381865afa15801561223d573d6000803e3d6000fd5b505050506040513d601f19601f820116820180604052508101906122619190614db5565b60000361228a5761228a6006602160991b0160008051602061550d833981519152600019613847565b604051636eb1769f60e11b815230600482015260008051602061550d83398151915260248201526042602160991b019063dd62ed3e90604401602060405180830381865afa1580156122e0573d6000803e3d6000fd5b505050506040513d601f19601f820116820180604052508101906123049190614db5565b60000361232d5761232d6042602160991b0160008051602061550d833981519152600019613847565b505050508015612377576000805461ff0019169055604051600181527f7f26b83ff96e1f2b6a682f133852f6798a09c465da95921460cefb38474024989060200160405180910390a15b50505050565b6001600160a01b03811660009081526101376020526040812060018101546101365482546ec097ce7bc90715b34b9f1000000000916123bb91614dfb565b6123c59190614e1a565b611cad9190614de4565b6123d7613734565b6123df61395c565b61012d546001600160a01b038581169116148061240a575061012e546001600160a01b038581169116145b80612423575061012f546001600160a01b038581169116145b61245f5760405162461bcd60e51b815260206004820152600d60248201526c24b73b30b634b2103a37b5b2b760991b60448201526064016106d2565b600083116124a05760405162461bcd60e51b815260206004820152600e60248201526d125b9d985b1a5908185b5bdd5b9d60921b60448201526064016106d2565b60006124aa6116da565b905080156124ba576124ba610784565b61012d546040516370a0823160e01b81523060048201526000916001600160a01b0316906370a0823190602401602060405180830381865afa158015612504573d6000803e3d6000fd5b505050506040513d601f19601f820116820180604052508101906125289190614db5565b61012e546040516370a0823160e01b81523060048201529192506000916001600160a01b03909116906370a0823190602401602060405180830381865afa158015612577573d6000803e3d6000fd5b505050506040513d601f19601f8201168201806040525081019061259b9190614db5565b905034156126a6576001600160a01b0387166006602160991b01146126025760405162461bcd60e51b815260206004820152601960248201527f57455448206f6e6c7920666f7220455448206465706f7369740000000000000060448201526064016106d2565b3486146126465760405162461bcd60e51b8152602060048201526012602482015271125b9d985b1a590811551208185b5bdd5b9d60721b60448201526064016106d2565b6006602160991b016001600160a01b031663d0e30db0346040518263ffffffff1660e01b81526004016000604051808303818588803b15801561268857600080fd5b505af115801561269c573d6000803e3d6000fd5b50505050506126bb565b6126bb6001600160a01b0388163330896139a2565b3360009081526101386020526040812043905561012f546001600160a01b0389811691161461308d5761012d5460009081906001600160a01b03908116908b160361275e576103e861270d898b614dfb565b6127179190614e1a565b61012d5461012e546101305492945061274b926001600160a01b039283169290911690600160a01b900460ff16858b6135f3565b9050612757828a614de4565b91506127b8565b6103e861276b898b614dfb565b6127759190614e1a565b61012e5461012d54610130549293506127a9926001600160a01b039283169290911690600160a01b900460ff16848b6135f3565b91506127b5818a614de4565b90505b61012d5461012e5461013054604051635a47ddc360e01b815260008051602061550d83398151915293635a47ddc39361281d936001600160a01b0392831693919092169160ff600160a01b9091041690889088906000908190309042906004016151c8565b6060604051808303816000875af115801561283c573d6000803e3d6000fd5b505050506040513d601f19601f820116820180604052508101906128609190615217565b61012d546040516370a0823160e01b8152306004820152919650600093508892506001600160a01b0316906370a0823190602401602060405180830381865afa1580156128b1573d6000803e3d6000fd5b505050506040513d601f19601f820116820180604052508101906128d59190614db5565b6128df9190614de4565b61012e546040516370a0823160e01b815230600482015291925060009187916001600160a01b0316906370a0823190602401602060405180830381865afa15801561292e573d6000803e3d6000fd5b505050506040513d601f19601f820116820180604052508101906129529190614db5565b61295c9190614de4565b90508115612cb15761013054600160a01b900460ff1615612bb95761012d546001600160a01b03166000805160206154ed83398151915214806129b8575061012e546001600160a01b03166000805160206154ed833981519152145b15612a9d5761012d60009054906101000a90046001600160a01b03166001600160a01b031663313ce5676040518163ffffffff1660e01b8152600401602060405180830381865afa158015612a11573d6000803e3d6000fd5b505050506040513d601f19601f82011682018060405250810190612a359190615245565b612a439060ff16600a61534c565b612a4e90600a614dfb565b821115612a805761012d54612a6f9083906001600160a01b031689896139da565b612a799086614e3c565b9450612cb1565b61012d54612a98906001600160a01b031633846136d1565b612cb1565b61012d546001600160a01b03166006602160991b011480612ad0575061012e546001600160a01b03166006602160991b01145b15612a8057604051635e1e632560e01b815260009060008051602061550d83398151915290635e1e632590612b229086906006602160991b01906000805160206154ed83398151915290600401615358565b6040805180830381865afa158015612b3e573d6000803e3d6000fd5b505050506040513d601f19601f82011682018060405250810190612b629190615377565b50905062989680811115612b9b5761012d54612b8a9084906001600160a01b03168a8a6139da565b612b949087614e3c565b9550612bb3565b61012d54612bb3906001600160a01b031633856136d1565b50612cb1565b61012d546001600160a01b0316737f5c764cbc14f9669b88837ca1490cca17c316061901612c1f5762989680821115612c0657612a6f826000805160206154ed83398151915289896139da565b612a986000805160206154ed83398151915233846136d1565b61012e546001600160a01b0316737f5c764cbc14f9669b88837ca1490cca17c316061901612c995761012d54604051635e1e632560e01b815260009160008051602061550d83398151915291635e1e632591612b229187916001600160a01b0316906000805160206154ed83398151915290600401615358565b61012d54612cb1906001600160a01b031633846136d1565b80156130845761013054600160a01b900460ff1615612f0c5761012d546001600160a01b03166000805160206154ed8339815191521480612d0b575061012e546001600160a01b03166000805160206154ed833981519152145b15612df05761012e60009054906101000a90046001600160a01b03166001600160a01b031663313ce5676040518163ffffffff1660e01b8152600401602060405180830381865afa158015612d64573d6000803e3d6000fd5b505050506040513d601f19601f82011682018060405250810190612d889190615245565b612d969060ff16600a61534c565b612da190600a614dfb565b811115612dd35761012e54612dc29082906001600160a01b031689896139da565b612dcc9086614e3c565b9450613084565b61012e54612deb906001600160a01b031633836136d1565b613084565b61012d546001600160a01b03166006602160991b011480612e23575061012e546001600160a01b03166006602160991b01145b15612dd357604051635e1e632560e01b815260009060008051602061550d83398151915290635e1e632590612e759085906006602160991b01906000805160206154ed83398151915290600401615358565b6040805180830381865afa158015612e91573d6000803e3d6000fd5b505050506040513d601f19601f82011682018060405250810190612eb59190615377565b50905062989680811115612eee5761012e54612edd9083906001600160a01b03168a8a6139da565b612ee79087614e3c565b9550612f06565b61012e54612f06906001600160a01b031633846136d1565b50613084565b61012d546001600160a01b0316737f5c764cbc14f9669b88837ca1490cca17c3160619016130065761012e54604051635e1e632560e01b815260009160008051602061550d83398151915291635e1e632591612f869186916001600160a01b0316906000805160206154ed83398151915290600401615358565b6040805180830381865afa158015612fa2573d6000803e3d6000fd5b505050506040513d601f19601f82011682018060405250810190612fc69190615377565b50905062989680811115612fee5761012e54612edd9083906001600160a01b03168a8a6139da565b61012e54612f06906001600160a01b031633856136d1565b61012e546001600160a01b0316737f5c764cbc14f9669b88837ca1490cca17c31606190161306c576298968081111561305357612dc2816000805160206154ed83398151915289896139da565b612deb6000805160206154ed83398151915233836136d1565b61012d54613084906001600160a01b031633836136d1565b50505050613090565b50855b61013054604051631c57762b60e31b815260048101839052600060248201526001600160a01b039091169063e2bbb15890604401600060405180830381600087803b1580156130de57600080fd5b505af11580156130f2573d6000803e3d6000fd5b505033600090815261013760205260408120805490935084925083919061311a908490614e3c565b9091555050610136546ec097ce7bc90715b34b9f10000000009061313e9084614dfb565b6131489190614e1a565b81600101600082825461315b9190614e3c565b909155505060408051898152602081018490526001600160a01b038b16917f90890809c654f11d6e72a28fa60149770a0d11ec6c92319d6ceb2bb0a4ea1a15910160405180910390a25050505050612377600160c955565b6131bb6134b0565b61013154604080516001600160a01b03928316815291831660208301527f190c262dc6f09322c68a13bf67c9659e58367755ba6190fa7ce5ca8aa45a877d910160405180910390a161013180546001600160a01b0319166001600160a01b0392909216919091179055565b6000807313e3ee699d1909e989722e753853ae30b17e08c56001600160a01b031663feaf968c6040518163ffffffff1660e01b815260040160a060405180830381865afa15801561327b573d6000803e3d6000fd5b505050506040513d601f19601f8201168201806040525081019061329f91906153bd565b50505091505068056bc75e2d63100000816132b8613c29565b611d439190614dfb565b6132ca6134b0565b6001600160a01b03811661332f5760405162461bcd60e51b815260206004820152602660248201527f4f776e61626c653a206e6577206f776e657220697320746865207a65726f206160448201526564647265737360d01b60648201526084016106d2565b61076f8161378d565b61076f6134b0565b7f4910fdfa16fed3260ed0e7147f7cc6da11a60208b5b9406d12a635614ffd91435460ff1615613378576133738361464b565b505050565b826001600160a01b03166352d1902d6040518163ffffffff1660e01b8152600401602060405180830381865afa9250505080156133d2575060408051601f3d908101601f191682019092526133cf91810190614db5565b60015b6134355760405162461bcd60e51b815260206004820152602e60248201527f45524331393637557067726164653a206e657720696d706c656d656e7461746960448201526d6f6e206973206e6f74205555505360901b60648201526084016106d2565b60008051602061552d83398151915281146134a45760405162461bcd60e51b815260206004820152602960248201527f45524331393637557067726164653a20756e737570706f727465642070726f786044820152681a58589b195555525160ba1b60648201526084016106d2565b506133738383836146e7565b6033546001600160a01b031633146107825760405162461bcd60e51b815260206004820181905260248201527f4f776e61626c653a2063616c6c6572206973206e6f7420746865206f776e657260448201526064016106d2565b61351261395c565b60fb805460ff191660011790557f62e78cea01bee320cd4e420270b5ea74000d11b0c9f74754ebdbfc544b05a2586135473390565b6040516001600160a01b03909116815260200160405180910390a1565b600083156135e957604051635e1e632560e01b815260008051602061550d83398151915290635e1e6325906135a190879087908790600401615358565b6040805180830381865afa1580156135bd573d6000803e3d6000fd5b505050506040513d601f19601f820116820180604052508101906135e19190615377565b509050611cad565b5060009392505050565b600082600003613605575060006136c8565b6040516313dcfc5960e01b815260048101849052602481018390526001600160a01b0380881660448301528616606482015284151560848201523060a48201524260c482015260008051602061550d833981519152906313dcfc599060e4016000604051808303816000875af1158015613683573d6000803e3d6000fd5b505050506040513d6000823e601f3d908101601f191682016040526136ab9190810190614f9b565b6001815181106136bd576136bd614e54565b602002602001015190505b95945050505050565b6040516001600160a01b03831660248201526044810182905261337390849063a9059cbb60e01b906064015b60408051601f198184030181529190526020810180516001600160e01b03166001600160e01b03199093169290921790915261470c565b600260c954036137865760405162461bcd60e51b815260206004820152601f60248201527f5265656e7472616e637947756172643a207265656e7472616e742063616c6c0060448201526064016106d2565b600260c955565b603380546001600160a01b038381166001600160a01b0319831681179093556040519116919082907f8be0079c531659141344cd1fd0a4f28419497f9722a3daafe3b4186f6b6457e090600090a35050565b6137e76147de565b60fb805460ff191690557f5db9ee0a495bf2e6ff9c91a7834c1ba4fdd244a5e8aa4e537bd38aeae4b073aa33613547565b600054610100900460ff1661383f5760405162461bcd60e51b81526004016106d29061540d565b610782614827565b8015806138c15750604051636eb1769f60e11b81523060048201526001600160a01b03838116602483015284169063dd62ed3e90604401602060405180830381865afa15801561389b573d6000803e3d6000fd5b505050506040513d601f19601f820116820180604052508101906138bf9190614db5565b155b61392c5760405162461bcd60e51b815260206004820152603660248201527f5361666545524332303a20617070726f76652066726f6d206e6f6e2d7a65726f60448201527520746f206e6f6e2d7a65726f20616c6c6f77616e636560501b60648201526084016106d2565b6040516001600160a01b03831660248201526044810182905261337390849063095ea7b360e01b906064016136fd565b60fb5460ff16156107825760405162461bcd60e51b815260206004820152601060248201526f14185d5cd8589b194e881c185d5cd95960821b60448201526064016106d2565b6040516001600160a01b03808516602483015283166044820152606481018290526123779085906323b872dd60e01b906084016136fd565b61012d5460009081906001600160a01b03868116911614613a075761012d546001600160a01b0316613a15565b61012e546001600160a01b03165b90506000613a24600288614e1a565b90506000613a46878461013060149054906101000a900460ff168560006135f3565b61013054604051635a47ddc360e01b815291925060009160008051602061550d83398151915291635a47ddc391613a9a918c918991600160a01b900460ff16908990899089908190309042906004016151c8565b6060604051808303816000875af1158015613ab9573d6000803e3d6000fd5b505050506040513d601f19601f82011682018060405250810190613add9190615217565b61012d546040516370a0823160e01b8152306004820152919450600093508a92506001600160a01b0316906370a0823190602401602060405180830381865afa158015613b2e573d6000803e3d6000fd5b505050506040513d601f19601f82011682018060405250810190613b529190614db5565b613b5c9190614de4565b90508015613b7c5761012d54613b7c906001600160a01b031633836136d1565b61012e546040516370a0823160e01b815230600482015260009189916001600160a01b03909116906370a0823190602401602060405180830381865afa158015613bca573d6000803e3d6000fd5b505050506040513d601f19601f82011682018060405250810190613bee9190614db5565b613bf89190614de4565b90508015613c185761012e54613c18906001600160a01b031633836136d1565b50909450505050505b949350505050565b600080600061012f60009054906101000a90046001600160a01b03166001600160a01b0316630902f1ac6040518163ffffffff1660e01b81526004016040805180830381865afa158015613c81573d6000803e3d6000fd5b505050506040513d601f19601f82011682018060405250810190613ca59190615041565b9150915060008061012d60009054906101000a90046001600160a01b03166001600160a01b031663313ce5676040518163ffffffff1660e01b8152600401602060405180830381865afa158015613d00573d6000803e3d6000fd5b505050506040513d601f19601f82011682018060405250810190613d249190615245565b60ff169050600061012e60009054906101000a90046001600160a01b03166001600160a01b031663313ce5676040518163ffffffff1660e01b8152600401602060405180830381865afa158015613d7f573d6000803e3d6000fd5b505050506040513d601f19601f82011682018060405250810190613da39190615245565b61012d5460ff9190911691506001600160a01b03166005602160991b011901613e9857600060008051602061550d833981519152635e1e6325613de784600a61534c565b61012e546040516001600160e01b031960e085901b168152613e1f92916001600160a01b0316906006602160991b0190600401615358565b6040805180830381865afa158015613e3b573d6000803e3d6000fd5b505050506040513d601f19601f82011682018060405250810190613e5f9190615377565b5090506000613e6f83600a61534c565b613e798388614dfb565b613e839190614e1a565b9050613e8f8188614e3c565b945050506145ad565b61012e546001600160a01b03166005602160991b011901613f7c57600060008051602061550d833981519152635e1e6325613ed485600a61534c565b61012d546040516001600160e01b031960e085901b168152613f0c92916001600160a01b0316906006602160991b0190600401615358565b6040805180830381865afa158015613f28573d6000803e3d6000fd5b505050506040513d601f19601f82011682018060405250810190613f4c9190615377565b5090506000613f5c84600a61534c565b613f668389614dfb565b613f709190614e1a565b9050613e8f8187614e3c565b60408051600280825260608201909252600091816020015b6040805160608101825260008082526020808301829052928201528252600019909201910181613f945790505061012d5490915060009081906001600160a01b03166000805160206154ed833981519152148015614001575061013054600160a01b900460ff1615156001145b156141f257604051635e1e632560e01b815260008051602061550d83398151915290635e1e63259061405390620f4240906000805160206154ed833981519152906006602160991b0190600401615358565b6040805180830381865afa15801561406f573d6000803e3d6000fd5b505050506040513d601f19601f820116820180604052508101906140939190615377565b506040805160608101825261012e546001600160a01b031681526000805160206154ed833981519152602082015260019181019190915284519193509084906000906140e1576140e1614e54565b602002602001018190525060405180606001604052806000805160206154ed8339815191526001600160a01b031681526020016006602160991b016001600160a01b03168152602001600015158152508360018151811061414457614144614e54565b602090810291909101015260008051602061550d833981519152639881fcb461416e86600a61534c565b856040518363ffffffff1660e01b815260040161418c929190615458565b600060405180830381865afa1580156141a9573d6000803e3d6000fd5b505050506040513d6000823e601f3d908101601f191682016040526141d19190810190614f9b565b6002815181106141e3576141e3614e54565b60200260200101519050614555565b61012e546001600160a01b03166000805160206154ed83398151915214801561422a575061013054600160a01b900460ff1615156001145b15614420576040805160608101825261012d546001600160a01b031681526000805160206154ed8339815191526020820152600091810182905284519091859161427657614276614e54565b602002602001018190525060405180606001604052806000805160206154ed8339815191526001600160a01b031681526020016006602160991b016001600160a01b0316815260200160001515815250836001815181106142d9576142d9614e54565b602090810291909101015260008051602061550d833981519152639881fcb461430387600a61534c565b856040518363ffffffff1660e01b8152600401614321929190615458565b600060405180830381865afa15801561433e573d6000803e3d6000fd5b505050506040513d6000823e601f3d908101601f191682016040526143669190810190614f9b565b60028151811061437857614378614e54565b6020026020010151915060008051602061550d8339815191526001600160a01b0316635e1e6325620f42406000805160206154ed8339815191526006602160991b016040518463ffffffff1660e01b81526004016143d893929190615358565b6040805180830381865afa1580156143f4573d6000803e3d6000fd5b505050506040513d601f19601f820116820180604052508101906144189190615377565b509050614555565b60008051602061550d833981519152635e1e632561443f87600a61534c565b61012d546040516001600160e01b031960e085901b16815261447792916001600160a01b0316906006602160991b0190600401615358565b6040805180830381865afa158015614493573d6000803e3d6000fd5b505050506040513d601f19601f820116820180604052508101906144b79190615377565b50915060008051602061550d833981519152635e1e63256144d986600a61534c565b61012e546040516001600160e01b031960e085901b16815261451192916001600160a01b0316906006602160991b0190600401615358565b6040805180830381865afa15801561452d573d6000803e3d6000fd5b505050506040513d601f19601f820116820180604052508101906145519190615377565b5090505b600061456286600a61534c565b61456c848b614dfb565b6145769190614e1a565b9050600061458586600a61534c565b61458f848b614dfb565b6145999190614e1a565b90506145a58183614e3c565b975050505050505b61012f60009054906101000a90046001600160a01b03166001600160a01b03166318160ddd6040518163ffffffff1660e01b8152600401602060405180830381865afa158015614601573d6000803e3d6000fd5b505050506040513d601f19601f820116820180604052508101906146259190614db5565b61463784670de0b6b3a7640000614dfb565b6146419190614e1a565b9550505050505090565b6001600160a01b0381163b6146b85760405162461bcd60e51b815260206004820152602d60248201527f455243313936373a206e657720696d706c656d656e746174696f6e206973206e60448201526c1bdd08184818dbdb9d1c9858dd609a1b60648201526084016106d2565b60008051602061552d83398151915280546001600160a01b0319166001600160a01b0392909216919091179055565b6146f083614857565b6000825111806146fd5750805b15613373576123778383614897565b6000614761826040518060400160405280602081526020017f5361666545524332303a206c6f772d6c6576656c2063616c6c206661696c6564815250856001600160a01b03166149829092919063ffffffff16565b805190915015613373578080602001905181019061477f91906150d1565b6133735760405162461bcd60e51b815260206004820152602a60248201527f5361666545524332303a204552433230206f7065726174696f6e20646964206e6044820152691bdd081cdd58d8d9595960b21b60648201526084016106d2565b60fb5460ff166107825760405162461bcd60e51b815260206004820152601460248201527314185d5cd8589b194e881b9bdd081c185d5cd95960621b60448201526064016106d2565b600054610100900460ff1661484e5760405162461bcd60e51b81526004016106d29061540d565b6107823361378d565b6148608161464b565b6040516001600160a01b038216907fbc7cd75a20ee27fd9adebab32041f755214dbc6bffa90cc0225b39da2e5c2d3b90600090a250565b60606001600160a01b0383163b6148ff5760405162461bcd60e51b815260206004820152602660248201527f416464726573733a2064656c65676174652063616c6c20746f206e6f6e2d636f6044820152651b9d1c9858dd60d21b60648201526084016106d2565b600080846001600160a01b03168460405161491a919061549d565b600060405180830381855af49150503d8060008114614955576040519150601f19603f3d011682016040523d82523d6000602084013e61495a565b606091505b50915091506136c8828260405180606001604052806027815260200161554d60279139614991565b6060613c2184846000856149aa565b606083156149a0575081611cad565b611cad8383614a85565b606082471015614a0b5760405162461bcd60e51b815260206004820152602660248201527f416464726573733a20696e73756666696369656e742062616c616e636520666f6044820152651c8818d85b1b60d21b60648201526084016106d2565b600080866001600160a01b03168587604051614a27919061549d565b60006040518083038185875af1925050503d8060008114614a64576040519150601f19603f3d011682016040523d82523d6000602084013e614a69565b606091505b5091509150614a7a87838387614aaf565b979650505050505050565b815115614a955781518083602001fd5b8060405162461bcd60e51b81526004016106d291906154b9565b60608315614b1e578251600003614b17576001600160a01b0385163b614b175760405162461bcd60e51b815260206004820152601d60248201527f416464726573733a2063616c6c20746f206e6f6e2d636f6e747261637400000060448201526064016106d2565b5081613c21565b613c218383614a85565b6001600160a01b038116811461076f57600080fd5b600060208284031215614b4f57600080fd5b8135611cad81614b28565b634e487b7160e01b600052604160045260246000fd5b604051601f8201601f1916810167ffffffffffffffff81118282101715614b9957614b99614b5a565b604052919050565b60008060408385031215614bb457600080fd5b8235614bbf81614b28565b915060208381013567ffffffffffffffff80821115614bdd57600080fd5b818601915086601f830112614bf157600080fd5b813581811115614c0357614c03614b5a565b614c15601f8201601f19168501614b70565b91508082528784828501011115614c2b57600080fd5b80848401858401376000848284010152508093505050509250929050565b600060208284031215614c5b57600080fd5b5035919050565b600080600060608486031215614c7757600080fd5b8335614c8281614b28565b95602085013595506040909401359392505050565b600080600060608486031215614cac57600080fd5b8335614cb781614b28565b92506020840135614cc781614b28565b91506040840135614cd781614b28565b809150509250925092565b60008060008060808587031215614cf857600080fd5b8435614d0381614b28565b966020860135965060408601359560600135945092505050565b6020808252602c908201527f46756e6374696f6e206d7573742062652063616c6c6564207468726f7567682060408201526b19195b1959d85d1958d85b1b60a21b606082015260800190565b6020808252602c908201527f46756e6374696f6e206d7573742062652063616c6c6564207468726f7567682060408201526b6163746976652070726f787960a01b606082015260800190565b600060208284031215614dc757600080fd5b5051919050565b634e487b7160e01b600052601160045260246000fd5b600082821015614df657614df6614dce565b500390565b6000816000190483118215151615614e1557614e15614dce565b500290565b600082614e3757634e487b7160e01b600052601260045260246000fd5b500490565b60008219821115614e4f57614e4f614dce565b500190565b634e487b7160e01b600052603260045260246000fd5b600081518084526020808501945080840160005b83811015614ea35781516001600160a01b031687529582019590820190600101614e7e565b509495945050505050565b6001600160a01b0383168152604060208201819052600090613c2190830184614e6a565b608081526000614ee56080830187614e6a565b6020830195909552506001600160a01b0392831660408201529116606090910152919050565b600081518084526020808501945080840160005b83811015614ea357815180516001600160a01b03908116895284820151168489015260409081015115159088015260609096019590820190600101614f1f565b85815284602082015260a060408201526000614f7e60a0830186614f0b565b6001600160a01b0394909416606083015250608001529392505050565b60006020808385031215614fae57600080fd5b825167ffffffffffffffff80821115614fc657600080fd5b818501915085601f830112614fda57600080fd5b815181811115614fec57614fec614b5a565b8060051b9150614ffd848301614b70565b818152918301840191848101908884111561501757600080fd5b938501935b838510156150355784518252938501939085019061501c565b98975050505050505050565b6000806040838503121561505457600080fd5b505080516020909101519092909150565b60006020828403121561507757600080fd5b8151611cad81614b28565b6000806040838503121561509557600080fd5b82516150a081614b28565b60208401519092506150b181614b28565b809150509250929050565b805180151581146150cc57600080fd5b919050565b6000602082840312156150e357600080fd5b611cad826150bc565b80516fffffffffffffffffffffffffffffffff811681146150cc57600080fd5b60008060008060008060008060006101208a8c03121561512b57600080fd5b8951985061513b60208b016150ec565b975061514960408b016150ec565b965061515760608b016150ec565b955061516560808b016150ec565b945061517360a08b016150ec565b935060c08a015164ffffffffff8116811461518d57600080fd5b60e08b015190935061ffff811681146151a557600080fd5b6101008b01519092506151b781614b28565b809150509295985092959850929598565b6001600160a01b03998a168152978916602089015295151560408801526060870194909452608086019290925260a085015260c084015290921660e08201526101008101919091526101200190565b60008060006060848603121561522c57600080fd5b8351925060208401519150604084015190509250925092565b60006020828403121561525757600080fd5b815160ff81168114611cad57600080fd5b600181815b808511156152a357816000190482111561528957615289614dce565b8085161561529657918102915b93841c939080029061526d565b509250929050565b6000826152ba57506001611cf5565b816152c757506000611cf5565b81600181146152dd57600281146152e757615303565b6001915050611cf5565b60ff8411156152f8576152f8614dce565b50506001821b611cf5565b5060208310610133831016604e8410600b8410161715615326575081810a611cf5565b6153308383615268565b806000190482111561534457615344614dce565b029392505050565b6000611cad83836152ab565b9283526001600160a01b03918216602084015216604082015260600190565b6000806040838503121561538a57600080fd5b8251915061539a602084016150bc565b90509250929050565b805169ffffffffffffffffffff811681146150cc57600080fd5b600080600080600060a086880312156153d557600080fd5b6153de866153a3565b9450602086015193506040860151925060608601519150615401608087016153a3565b90509295509295909350565b6020808252602b908201527f496e697469616c697a61626c653a20636f6e7472616374206973206e6f74206960408201526a6e697469616c697a696e6760a81b606082015260800190565b828152604060208201526000613c216040830184614f0b565b60005b8381101561548c578181015183820152602001615474565b838111156123775750506000910152565b600082516154af818460208701615471565b9190910192915050565b60208152600082518060208401526154d8816040850160208701615471565b601f01601f1916919091016040019291505056fe0000000000000000000000007f5c764cbc14f9669b88837ca1490cca17c31607000000000000000000000000a132dab612db5cb9fc9ac426a0cc215a3423f9c9360894a13ba1a3210667c828492db98dca3e2076cc3735a920a3ca505d382bbc416464726573733a206c6f772d6c6576656c2064656c65676174652063616c6c206661696c6564a2646970667358221220595df3ceb79c8ac7698dc41a5792a9ecb95c94970776643ab86c8696d2eb742264736f6c634300080f0033",
        "nonce": "0x5c"
      },
      "additionalContracts": []
    },
    {
      "hash": "0xe03dc1f59a2a1c9574fc10a93fbba52b38472710e2301bc7ebc733f74d5fc5a4",
      "transactionType": "CALL",
      "contractName": null,
      "contractAddress": "0x208e2D48b5A080E57792D8b175De914Ddb18F9a8",
      "function": "upgradeTo(address)",
      "arguments": [
        "0x0D5D900eE9b801E3C32ED9D9ed6fe1ec994F692F"
      ],
      "transaction": {
        "type": "0x00",
        "from": "0x2c10ac0e6b6c1619f4976b2ba559135bfef53c5e",
        "to": "0x208e2d48b5a080e57792d8b175de914ddb18f9a8",
        "gas": "0xd324",
        "value": "0x0",
        "data": "0x3659cfe60000000000000000000000000d5d900ee9b801e3c32ed9d9ed6fe1ec994f692f",
        "nonce": "0x5d"
      },
      "additionalContracts": []
    },
    {
      "hash": "0x12ad261ae4976d8deae57ff7f16401e3f3c3a3dc58298e32ceb47d76b1ddc8b5",
      "transactionType": "CALL",
      "contractName": null,
      "contractAddress": "0xee9857e5e1d0089075F75ABe5255fc30695d09FA",
      "function": "upgradeTo(address)",
      "arguments": [
        "0x0D5D900eE9b801E3C32ED9D9ed6fe1ec994F692F"
      ],
      "transaction": {
        "type": "0x00",
        "from": "0x2c10ac0e6b6c1619f4976b2ba559135bfef53c5e",
        "to": "0xee9857e5e1d0089075f75abe5255fc30695d09fa",
        "gas": "0xd324",
        "value": "0x0",
        "data": "0x3659cfe60000000000000000000000000d5d900ee9b801e3c32ed9d9ed6fe1ec994f692f",
        "nonce": "0x5e"
      },
      "additionalContracts": []
    },
    {
      "hash": "0x355b99772dfdf98843a7d75f98a7ab83093f5fd8888b0c86379869acb7ea5b17",
      "transactionType": "CALL",
      "contractName": null,
      "contractAddress": "0x74f6C748E2DF1c89bf7ed29617A2B41b0f4f82A2",
      "function": "upgradeTo(address)",
      "arguments": [
        "0x0D5D900eE9b801E3C32ED9D9ed6fe1ec994F692F"
      ],
      "transaction": {
        "type": "0x00",
        "from": "0x2c10ac0e6b6c1619f4976b2ba559135bfef53c5e",
        "to": "0x74f6c748e2df1c89bf7ed29617a2b41b0f4f82a2",
        "gas": "0xd324",
        "value": "0x0",
        "data": "0x3659cfe60000000000000000000000000d5d900ee9b801e3c32ed9d9ed6fe1ec994f692f",
        "nonce": "0x5f"
      },
      "additionalContracts": []
    },
    {
      "hash": "0x05d89f4da32e5910a9959d17e4ae77ccb46f824508560c95a079baf6f5086418",
      "transactionType": "CALL",
      "contractName": null,
      "contractAddress": "0x75633BFAbf0ee9036af06900b8f301Ed8ed29121",
      "function": "upgradeTo(address)",
      "arguments": [
        "0x0D5D900eE9b801E3C32ED9D9ed6fe1ec994F692F"
      ],
      "transaction": {
        "type": "0x00",
        "from": "0x2c10ac0e6b6c1619f4976b2ba559135bfef53c5e",
        "to": "0x75633bfabf0ee9036af06900b8f301ed8ed29121",
        "gas": "0xd324",
        "value": "0x0",
        "data": "0x3659cfe60000000000000000000000000d5d900ee9b801e3c32ed9d9ed6fe1ec994f692f",
        "nonce": "0x60"
      },
      "additionalContracts": []
    },
    {
      "hash": "0x84f558472eb8ba542e2e5bd52ffeba77f3b872e81209ee3b19153b773f1c1ee6",
      "transactionType": "CALL",
      "contractName": null,
      "contractAddress": "0xc23CF2762094a4Dd8DC3D4AaAAfdB38704B0f484",
      "function": "upgradeTo(address)",
      "arguments": [
        "0x0D5D900eE9b801E3C32ED9D9ed6fe1ec994F692F"
      ],
      "transaction": {
        "type": "0x00",
        "from": "0x2c10ac0e6b6c1619f4976b2ba559135bfef53c5e",
        "to": "0xc23cf2762094a4dd8dc3d4aaaafdb38704b0f484",
        "gas": "0xd324",
        "value": "0x0",
        "data": "0x3659cfe60000000000000000000000000d5d900ee9b801e3c32ed9d9ed6fe1ec994f692f",
        "nonce": "0x61"
      },
      "additionalContracts": []
    },
    {
      "hash": "0x62599e35c3a7a6f33a4665f41ee70f1c99c31f505ffdd00e310b1fc33534bbfa",
      "transactionType": "CALL",
      "contractName": null,
      "contractAddress": "0xC15d58452E7CC62F213534dcD1999EDcc4C56E53",
      "function": "upgradeTo(address)",
      "arguments": [
        "0x0D5D900eE9b801E3C32ED9D9ed6fe1ec994F692F"
      ],
      "transaction": {
        "type": "0x00",
        "from": "0x2c10ac0e6b6c1619f4976b2ba559135bfef53c5e",
        "to": "0xc15d58452e7cc62f213534dcd1999edcc4c56e53",
        "gas": "0xd324",
        "value": "0x0",
        "data": "0x3659cfe60000000000000000000000000d5d900ee9b801e3c32ed9d9ed6fe1ec994f692f",
        "nonce": "0x62"
      },
      "additionalContracts": []
    },
    {
      "hash": "0x9ff9616e2b8521b759b20f1ce5a9f7d5ac6f527dc90858212c9e9111a7b9e4c9",
      "transactionType": "CALL",
      "contractName": null,
      "contractAddress": "0xcaCdE37C8Aef43304e9d7153e668eDb7126Ff755",
      "function": "upgradeTo(address)",
      "arguments": [
        "0x0D5D900eE9b801E3C32ED9D9ed6fe1ec994F692F"
      ],
      "transaction": {
        "type": "0x00",
        "from": "0x2c10ac0e6b6c1619f4976b2ba559135bfef53c5e",
        "to": "0xcacde37c8aef43304e9d7153e668edb7126ff755",
        "gas": "0xd324",
        "value": "0x0",
        "data": "0x3659cfe60000000000000000000000000d5d900ee9b801e3c32ed9d9ed6fe1ec994f692f",
        "nonce": "0x63"
      },
      "additionalContracts": []
    },
    {
      "hash": "0xcfc555ebac3b683320187ed47ce12102407801f40b1044de18e1e7a7ea12a70c",
      "transactionType": "CALL",
      "contractName": null,
      "contractAddress": "0xf12a8E2Fd857B134381c1B9F6027D4F0eE05295A",
      "function": "upgradeTo(address)",
      "arguments": [
        "0x0D5D900eE9b801E3C32ED9D9ed6fe1ec994F692F"
      ],
      "transaction": {
        "type": "0x00",
        "from": "0x2c10ac0e6b6c1619f4976b2ba559135bfef53c5e",
        "to": "0xf12a8e2fd857b134381c1b9f6027d4f0ee05295a",
        "gas": "0xd324",
        "value": "0x0",
        "data": "0x3659cfe60000000000000000000000000d5d900ee9b801e3c32ed9d9ed6fe1ec994f692f",
        "nonce": "0x64"
      },
      "additionalContracts": []
    },
    {
      "hash": "0x7036162a6d9eafd7db07ea582f42dcef40c6ece6d09cad4f77b4639eb64371d6",
      "transactionType": "CALL",
      "contractName": null,
      "contractAddress": "0x52671440732589E3027517E22c49ABc04941CF2F",
      "function": "upgradeTo(address)",
      "arguments": [
        "0x0D5D900eE9b801E3C32ED9D9ed6fe1ec994F692F"
      ],
      "transaction": {
        "type": "0x00",
        "from": "0x2c10ac0e6b6c1619f4976b2ba559135bfef53c5e",
        "to": "0x52671440732589e3027517e22c49abc04941cf2f",
        "gas": "0xd324",
        "value": "0x0",
        "data": "0x3659cfe60000000000000000000000000d5d900ee9b801e3c32ed9d9ed6fe1ec994f692f",
        "nonce": "0x65"
      },
      "additionalContracts": []
    },
    {
      "hash": "0xbb6a44d8d341f56dec41860582b53e482a80c2d21a4ad6d1c4e27da616710da2",
      "transactionType": "CALL",
      "contractName": null,
      "contractAddress": "0x3BD8d78d77dfA391c5F73c10aDeaAdD9a7f7198C",
      "function": "upgradeTo(address)",
      "arguments": [
        "0x0D5D900eE9b801E3C32ED9D9ed6fe1ec994F692F"
      ],
      "transaction": {
        "type": "0x00",
        "from": "0x2c10ac0e6b6c1619f4976b2ba559135bfef53c5e",
        "to": "0x3bd8d78d77dfa391c5f73c10adeaadd9a7f7198c",
        "gas": "0xd324",
        "value": "0x0",
        "data": "0x3659cfe60000000000000000000000000d5d900ee9b801e3c32ed9d9ed6fe1ec994f692f",
        "nonce": "0x66"
      },
      "additionalContracts": []
    },
    {
      "hash": "0x9071d2d6570a73285a913f7549b47087ad6448cab0ea52953eba39d74f645671",
      "transactionType": "CALL",
      "contractName": null,
      "contractAddress": "0x2510E5054eeEbED40C3C580ae3241F5457b630D9",
      "function": "upgradeTo(address)",
      "arguments": [
        "0x0D5D900eE9b801E3C32ED9D9ed6fe1ec994F692F"
      ],
      "transaction": {
        "type": "0x00",
        "from": "0x2c10ac0e6b6c1619f4976b2ba559135bfef53c5e",
        "to": "0x2510e5054eeebed40c3c580ae3241f5457b630d9",
        "gas": "0xd324",
        "value": "0x0",
        "data": "0x3659cfe60000000000000000000000000d5d900ee9b801e3c32ed9d9ed6fe1ec994f692f",
        "nonce": "0x67"
      },
      "additionalContracts": []
    },
    {
      "hash": "0xaaa8d4e54cd4e25de9db90f76b06a2afd0cbc2fd8a9a71e111db387f81ef94ba",
      "transactionType": "CALL",
      "contractName": null,
      "contractAddress": "0xFAcB839BF8f09f2e7B4b6C83349B5bbFD62fd659",
      "function": "upgradeTo(address)",
      "arguments": [
        "0x0D5D900eE9b801E3C32ED9D9ed6fe1ec994F692F"
      ],
      "transaction": {
        "type": "0x00",
        "from": "0x2c10ac0e6b6c1619f4976b2ba559135bfef53c5e",
        "to": "0xfacb839bf8f09f2e7b4b6c83349b5bbfd62fd659",
        "gas": "0xd324",
        "value": "0x0",
        "data": "0x3659cfe60000000000000000000000000d5d900ee9b801e3c32ed9d9ed6fe1ec994f692f",
        "nonce": "0x68"
      },
      "additionalContracts": []
    },
    {
      "hash": "0x02e018451adcc381dee3f6e7324490da6a8120136bae6b551a1baf1800ee3c06",
      "transactionType": "CALL",
      "contractName": null,
      "contractAddress": "0x176CC5Ff9BDBf4daFB955003E6f8229f47Ef1E55",
      "function": "upgradeTo(address)",
      "arguments": [
        "0x0D5D900eE9b801E3C32ED9D9ed6fe1ec994F692F"
      ],
      "transaction": {
        "type": "0x00",
        "from": "0x2c10ac0e6b6c1619f4976b2ba559135bfef53c5e",
        "to": "0x176cc5ff9bdbf4dafb955003e6f8229f47ef1e55",
        "gas": "0xd324",
        "value": "0x0",
        "data": "0x3659cfe60000000000000000000000000d5d900ee9b801e3c32ed9d9ed6fe1ec994f692f",
        "nonce": "0x69"
      },
      "additionalContracts": []
    },
    {
      "hash": "0xfd545337290c9b75fc6c522d5aee12592a9c240d330f595447c1f69c7d5c1734",
      "transactionType": "CALL",
      "contractName": null,
      "contractAddress": "0xa0Ea9A553cB47658e62Dee4D7b49F7c8Da234B69",
      "function": "upgradeTo(address)",
      "arguments": [
        "0x0D5D900eE9b801E3C32ED9D9ed6fe1ec994F692F"
      ],
      "transaction": {
        "type": "0x00",
        "from": "0x2c10ac0e6b6c1619f4976b2ba559135bfef53c5e",
        "to": "0xa0ea9a553cb47658e62dee4d7b49f7c8da234b69",
        "gas": "0xd324",
        "value": "0x0",
        "data": "0x3659cfe60000000000000000000000000d5d900ee9b801e3c32ed9d9ed6fe1ec994f692f",
        "nonce": "0x6a"
      },
      "additionalContracts": []
    },
    {
      "hash": "0xb15bf6b7fb984f4218e19af775add69b544810cfac0b26097d381f5c25cb8337",
      "transactionType": "CALL",
      "contractName": null,
      "contractAddress": "0xd0f9990a611018b5b30BFE1C5433bf5bba2a9868",
      "function": "upgradeTo(address)",
      "arguments": [
        "0x0D5D900eE9b801E3C32ED9D9ed6fe1ec994F692F"
      ],
      "transaction": {
        "type": "0x00",
        "from": "0x2c10ac0e6b6c1619f4976b2ba559135bfef53c5e",
        "to": "0xd0f9990a611018b5b30bfe1c5433bf5bba2a9868",
        "gas": "0xd324",
        "value": "0x0",
        "data": "0x3659cfe60000000000000000000000000d5d900ee9b801e3c32ed9d9ed6fe1ec994f692f",
        "nonce": "0x6b"
      },
      "additionalContracts": []
    },
    {
      "hash": "0xcd7c87a91a8b0ab0ae5e90b2331f9693575e011fd4b07b4a69dc78f55658ede4",
      "transactionType": "CALL",
      "contractName": null,
      "contractAddress": "0x0F0fFF5EA56b0eA2246A926F13181e33Be9FbAEA",
      "function": "upgradeTo(address)",
      "arguments": [
        "0x0D5D900eE9b801E3C32ED9D9ed6fe1ec994F692F"
      ],
      "transaction": {
        "type": "0x00",
        "from": "0x2c10ac0e6b6c1619f4976b2ba559135bfef53c5e",
        "to": "0x0f0fff5ea56b0ea2246a926f13181e33be9fbaea",
        "gas": "0xd324",
        "value": "0x0",
        "data": "0x3659cfe60000000000000000000000000d5d900ee9b801e3c32ed9d9ed6fe1ec994f692f",
        "nonce": "0x6c"
      },
      "additionalContracts": []
    },
    {
      "hash": "0x409c2fb72327d64819704317d6410f7b6ef3a6eb24723dc30c6da4675354b6da",
      "transactionType": "CALL",
      "contractName": null,
      "contractAddress": "0xcba7864134e1A5326b817676ad5302A009c84d68",
      "function": "upgradeTo(address)",
      "arguments": [
        "0x0D5D900eE9b801E3C32ED9D9ed6fe1ec994F692F"
      ],
      "transaction": {
        "type": "0x00",
        "from": "0x2c10ac0e6b6c1619f4976b2ba559135bfef53c5e",
        "to": "0xcba7864134e1a5326b817676ad5302a009c84d68",
        "gas": "0xd324",
        "value": "0x0",
        "data": "0x3659cfe60000000000000000000000000d5d900ee9b801e3c32ed9d9ed6fe1ec994f692f",
        "nonce": "0x6d"
      },
      "additionalContracts": []
    }
  ],
  "receipts": [
    {
      "transactionHash": "0x2178404870188ff3625c1408f6377fa8ac977c878cb0df4ae342df85516f140a",
      "transactionIndex": "0x0",
      "blockHash": "0x536b81775d49b2e2b62091d8c323f1f856f122f07cc1bc9641c7da579bc57e1a",
      "blockNumber": "0x186dc9d",
      "from": "0x2C10aC0E6B6c1619F4976b2ba559135BFeF53c5E",
      "to": null,
      "cumulativeGasUsed": "0x490b60",
      "gasUsed": "0x490b60",
      "contractAddress": "0x0D5D900eE9b801E3C32ED9D9ed6fe1ec994F692F",
      "logs": [],
      "status": "0x1",
      "logsBloom": "0x00000000000000000000000000000000000000000000000000000000000000000000000000000000000000000000000000000000000000000000000000000000000000000000000000000000000000000000000000000000000000000000000000000000000000000000000000000000000000000000000000000000000000000000000000000000000000000000000000000000000000000000000000000000000000000000000000000000000000000000000000000000000000000000000000000000000000000000000000000000000000000000000000000000000000000000000000000000000000000000000000000000000000000000000000000000"
    },
    {
      "transactionHash": "0xe03dc1f59a2a1c9574fc10a93fbba52b38472710e2301bc7ebc733f74d5fc5a4",
      "transactionIndex": "0x0",
      "blockHash": "0x5058556ca8b2ed6659c7e8072ba762549a7dfff4f6d0bad0cc3598f294b9f7d0",
      "blockNumber": "0x186dca8",
      "from": "0x2C10aC0E6B6c1619F4976b2ba559135BFeF53c5E",
      "to": "0x208e2D48b5A080E57792D8b175De914Ddb18F9a8",
      "cumulativeGasUsed": "0x98de",
      "gasUsed": "0x98de",
      "contractAddress": null,
      "logs": [
        {
          "address": "0x208e2D48b5A080E57792D8b175De914Ddb18F9a8",
          "topics": [
            "0xbc7cd75a20ee27fd9adebab32041f755214dbc6bffa90cc0225b39da2e5c2d3b",
            "0x0000000000000000000000000d5d900ee9b801e3c32ed9d9ed6fe1ec994f692f"
          ],
          "data": "0x",
          "blockHash": "0x5058556ca8b2ed6659c7e8072ba762549a7dfff4f6d0bad0cc3598f294b9f7d0",
          "blockNumber": "0x186dca8",
          "transactionHash": "0xe03dc1f59a2a1c9574fc10a93fbba52b38472710e2301bc7ebc733f74d5fc5a4",
          "transactionIndex": "0x0",
          "logIndex": "0x0",
          "removed": false
        }
      ],
      "status": "0x1",
      "logsBloom": "0x00000000000000200000000000000000400000000000000000000000000000000004040000000000000000000000002000000000000000000000000000000000000000000000000000000000000002000000000000000000000000000000000000000000000000000000000000000000000000000000000000000000000000000000000000000000000000000000000000000000000000000000000000000000000000000000000040000000000000000000000000000000000000000000000000000020000000000000000000000000000000000000000000000000000000000000000000000000000000000000000008000000000000000000000000000000"
    },
    {
      "transactionHash": "0x12ad261ae4976d8deae57ff7f16401e3f3c3a3dc58298e32ceb47d76b1ddc8b5",
      "transactionIndex": "0x0",
      "blockHash": "0x06428d023f9c954acbc59e4e48c09cc4e7a86a0808cb2c3ee5d8d4e72ce30da2",
      "blockNumber": "0x186dcb6",
      "from": "0x2C10aC0E6B6c1619F4976b2ba559135BFeF53c5E",
      "to": "0xee9857e5e1d0089075F75ABe5255fc30695d09FA",
      "cumulativeGasUsed": "0x98de",
      "gasUsed": "0x98de",
      "contractAddress": null,
      "logs": [
        {
          "address": "0xee9857e5e1d0089075F75ABe5255fc30695d09FA",
          "topics": [
            "0xbc7cd75a20ee27fd9adebab32041f755214dbc6bffa90cc0225b39da2e5c2d3b",
            "0x0000000000000000000000000d5d900ee9b801e3c32ed9d9ed6fe1ec994f692f"
          ],
          "data": "0x",
          "blockHash": "0x06428d023f9c954acbc59e4e48c09cc4e7a86a0808cb2c3ee5d8d4e72ce30da2",
          "blockNumber": "0x186dcb6",
          "transactionHash": "0x12ad261ae4976d8deae57ff7f16401e3f3c3a3dc58298e32ceb47d76b1ddc8b5",
          "transactionIndex": "0x0",
          "logIndex": "0x0",
          "removed": false
        }
      ],
      "status": "0x1",
      "logsBloom": "0x00000000000000200000000000000000400000000000000000000000000000000000000000000000000000000000002020000000000000000000000000000000000000000000000000000000000002000000000000000000000000000000000000000000008000000000000000000000000000000000000000000000000000000000000000000000000000000000000000000000000000000000000000000000000000000000000000000000000000000000000000000000000000000000000000000020000000000000000000000000000000000000000000000008000000000000000000000000000000000000000008000000000000000000000000000000"
    },
    {
      "transactionHash": "0x355b99772dfdf98843a7d75f98a7ab83093f5fd8888b0c86379869acb7ea5b17",
      "transactionIndex": "0x0",
      "blockHash": "0x982e971ed5943e8d576593063f885ebb8321cfad383321dc026c2ae7b4fe43cc",
      "blockNumber": "0x186dcbe",
      "from": "0x2C10aC0E6B6c1619F4976b2ba559135BFeF53c5E",
      "to": "0x74f6C748E2DF1c89bf7ed29617A2B41b0f4f82A2",
      "cumulativeGasUsed": "0x98de",
      "gasUsed": "0x98de",
      "contractAddress": null,
      "logs": [
        {
          "address": "0x74f6C748E2DF1c89bf7ed29617A2B41b0f4f82A2",
          "topics": [
            "0xbc7cd75a20ee27fd9adebab32041f755214dbc6bffa90cc0225b39da2e5c2d3b",
            "0x0000000000000000000000000d5d900ee9b801e3c32ed9d9ed6fe1ec994f692f"
          ],
          "data": "0x",
          "blockHash": "0x982e971ed5943e8d576593063f885ebb8321cfad383321dc026c2ae7b4fe43cc",
          "blockNumber": "0x186dcbe",
          "transactionHash": "0x355b99772dfdf98843a7d75f98a7ab83093f5fd8888b0c86379869acb7ea5b17",
          "transactionIndex": "0x0",
          "logIndex": "0x0",
          "removed": false
        }
      ],
      "status": "0x1",
      "logsBloom": "0x00000000000000200000000000000000400000000000000000000000000000000000000000000000000000000000002000000000000000000000000000000000000000000000800000000000000002000000000000000000000000000000000000000000000000000000000000000000000000000000000000000000000000000000000000000000000000000000000000000000000000000000000000000000000000000000000000000000000000000000000000000000000000000000000000000020000000000000000000000000000000000000000000000000000000000000000000000000000000000000000008000000000000000040000000000400"
    },
    {
      "transactionHash": "0x05d89f4da32e5910a9959d17e4ae77ccb46f824508560c95a079baf6f5086418",
      "transactionIndex": "0x0",
      "blockHash": "0x957f6cb05331036846c7580ab412462db1bfcc083f0b565c284b314cf9bb118a",
      "blockNumber": "0x186dcc7",
      "from": "0x2C10aC0E6B6c1619F4976b2ba559135BFeF53c5E",
      "to": "0x75633BFAbf0ee9036af06900b8f301Ed8ed29121",
      "cumulativeGasUsed": "0x98de",
      "gasUsed": "0x98de",
      "contractAddress": null,
      "logs": [
        {
          "address": "0x75633BFAbf0ee9036af06900b8f301Ed8ed29121",
          "topics": [
            "0xbc7cd75a20ee27fd9adebab32041f755214dbc6bffa90cc0225b39da2e5c2d3b",
            "0x0000000000000000000000000d5d900ee9b801e3c32ed9d9ed6fe1ec994f692f"
          ],
          "data": "0x",
          "blockHash": "0x957f6cb05331036846c7580ab412462db1bfcc083f0b565c284b314cf9bb118a",
          "blockNumber": "0x186dcc7",
          "transactionHash": "0x05d89f4da32e5910a9959d17e4ae77ccb46f824508560c95a079baf6f5086418",
          "transactionIndex": "0x0",
          "logIndex": "0x0",
          "removed": false
        }
      ],
      "status": "0x1",
      "logsBloom": "0x00000000000000200000000000000000400000000000000000000000000000000000000000000000000000000000002000000000000000000000000000000000000000000000000000000000000002000000000000000000000000000000000000000000000000000000000000000000000000000000001000000000000000000000000000000000000000000000000000000000000000000000000000000000000000000000000000000000001000000000000000200000000000000000000000000020000000000000000000000000000000000000000000000000000000000000000000000000000000000000000008000000000000000000000000000000"
    },
    {
      "transactionHash": "0x84f558472eb8ba542e2e5bd52ffeba77f3b872e81209ee3b19153b773f1c1ee6",
      "transactionIndex": "0x0",
      "blockHash": "0xbf556e84571afba8b915ade4c3e7b821c978b483538e7608b85d97a24f274a6a",
      "blockNumber": "0x186dccd",
      "from": "0x2C10aC0E6B6c1619F4976b2ba559135BFeF53c5E",
      "to": "0xc23CF2762094a4Dd8DC3D4AaAAfdB38704B0f484",
      "cumulativeGasUsed": "0x98de",
      "gasUsed": "0x98de",
      "contractAddress": null,
      "logs": [
        {
          "address": "0xc23CF2762094a4Dd8DC3D4AaAAfdB38704B0f484",
          "topics": [
            "0xbc7cd75a20ee27fd9adebab32041f755214dbc6bffa90cc0225b39da2e5c2d3b",
            "0x0000000000000000000000000d5d900ee9b801e3c32ed9d9ed6fe1ec994f692f"
          ],
          "data": "0x",
          "blockHash": "0xbf556e84571afba8b915ade4c3e7b821c978b483538e7608b85d97a24f274a6a",
          "blockNumber": "0x186dccd",
          "transactionHash": "0x84f558472eb8ba542e2e5bd52ffeba77f3b872e81209ee3b19153b773f1c1ee6",
          "transactionIndex": "0x0",
          "logIndex": "0x0",
          "removed": false
        }
      ],
      "status": "0x1",
      "logsBloom": "0x00000000000000200000000000000000400000000000000000000000000000000000000000000000000000000000002000000000000000000000000000000000000000000000000000000000000002000000000000000000000000000000000000000000000000000000000000000000000000000000000000000000000000400000000000000000000000000000000000000000000000000002000000000000000000000000000000010000000000000000000000000000000000000000000000000020000000000000000000000000000000000000000000000000000000000000000000000000000000000000000008000000000000000000000000000000"
    },
    {
      "transactionHash": "0x62599e35c3a7a6f33a4665f41ee70f1c99c31f505ffdd00e310b1fc33534bbfa",
      "transactionIndex": "0x0",
      "blockHash": "0xcd28278822a6f5f45ce42d5b89df7ae70c7987004eb038edf0170ab12cd15a6a",
      "blockNumber": "0x186dcd9",
      "from": "0x2C10aC0E6B6c1619F4976b2ba559135BFeF53c5E",
      "to": "0xC15d58452E7CC62F213534dcD1999EDcc4C56E53",
      "cumulativeGasUsed": "0x98de",
      "gasUsed": "0x98de",
      "contractAddress": null,
      "logs": [
        {
          "address": "0xC15d58452E7CC62F213534dcD1999EDcc4C56E53",
          "topics": [
            "0xbc7cd75a20ee27fd9adebab32041f755214dbc6bffa90cc0225b39da2e5c2d3b",
            "0x0000000000000000000000000d5d900ee9b801e3c32ed9d9ed6fe1ec994f692f"
          ],
          "data": "0x",
          "blockHash": "0xcd28278822a6f5f45ce42d5b89df7ae70c7987004eb038edf0170ab12cd15a6a",
          "blockNumber": "0x186dcd9",
          "transactionHash": "0x62599e35c3a7a6f33a4665f41ee70f1c99c31f505ffdd00e310b1fc33534bbfa",
          "transactionIndex": "0x0",
          "logIndex": "0x0",
          "removed": false
        }
      ],
      "status": "0x1",
      "logsBloom": "0x00000000000000200000000000010000400000000000000000000040000000000000000000000000000000000000002000000000000000000000000000000000000000000000000000000000000002000000000000000000000000000000000100000000000000000000000000000000000000000000000000000000000000000000000000000000000000000000000000000000000000000000000000000000000000000000000000000000000000000000000000000000000000000000000000000020000000000000000000000000000000000000000000000000000000000000000000000000000000000000000008000000000000000000000000000000"
    },
    {
      "transactionHash": "0x9ff9616e2b8521b759b20f1ce5a9f7d5ac6f527dc90858212c9e9111a7b9e4c9",
      "transactionIndex": "0x0",
      "blockHash": "0x4888c12a3f020f28c6177102f9f8e5a76a044ad948e67bed69255d0a089ccb6d",
      "blockNumber": "0x186dcdf",
      "from": "0x2C10aC0E6B6c1619F4976b2ba559135BFeF53c5E",
      "to": "0xcaCdE37C8Aef43304e9d7153e668eDb7126Ff755",
      "cumulativeGasUsed": "0x98de",
      "gasUsed": "0x98de",
      "contractAddress": null,
      "logs": [
        {
          "address": "0xcaCdE37C8Aef43304e9d7153e668eDb7126Ff755",
          "topics": [
            "0xbc7cd75a20ee27fd9adebab32041f755214dbc6bffa90cc0225b39da2e5c2d3b",
            "0x0000000000000000000000000d5d900ee9b801e3c32ed9d9ed6fe1ec994f692f"
          ],
          "data": "0x",
          "blockHash": "0x4888c12a3f020f28c6177102f9f8e5a76a044ad948e67bed69255d0a089ccb6d",
          "blockNumber": "0x186dcdf",
          "transactionHash": "0x9ff9616e2b8521b759b20f1ce5a9f7d5ac6f527dc90858212c9e9111a7b9e4c9",
          "transactionIndex": "0x0",
          "logIndex": "0x0",
          "removed": false
        }
      ],
      "status": "0x1",
      "logsBloom": "0x00000000000000200000000000000000400000000000000000000000000000000000000000000000000000000000002000000000000000000000000000000000000000000000000000000000000002000000000000000000000000000000000000000000000000000000000000000000000000000000000000000000000000000000000000000000000000000000000000000000000000000000000000000000100004000000000000000000000000000000010000000000000000000000000000000020000000000000000000000000000000000000000000000000000000000000000000000000000000000000000008000000000000000000000000000000"
    },
    {
      "transactionHash": "0xcfc555ebac3b683320187ed47ce12102407801f40b1044de18e1e7a7ea12a70c",
      "transactionIndex": "0x0",
      "blockHash": "0xaf39dc810ed0f6b4f39af3773290da939b56ac0ecb6654e5a3e503bc15ca1ca6",
      "blockNumber": "0x186dce9",
      "from": "0x2C10aC0E6B6c1619F4976b2ba559135BFeF53c5E",
      "to": "0xf12a8E2Fd857B134381c1B9F6027D4F0eE05295A",
      "cumulativeGasUsed": "0x98de",
      "gasUsed": "0x98de",
      "contractAddress": null,
      "logs": [
        {
          "address": "0xf12a8E2Fd857B134381c1B9F6027D4F0eE05295A",
          "topics": [
            "0xbc7cd75a20ee27fd9adebab32041f755214dbc6bffa90cc0225b39da2e5c2d3b",
            "0x0000000000000000000000000d5d900ee9b801e3c32ed9d9ed6fe1ec994f692f"
          ],
          "data": "0x",
          "blockHash": "0xaf39dc810ed0f6b4f39af3773290da939b56ac0ecb6654e5a3e503bc15ca1ca6",
          "blockNumber": "0x186dce9",
          "transactionHash": "0xcfc555ebac3b683320187ed47ce12102407801f40b1044de18e1e7a7ea12a70c",
          "transactionIndex": "0x0",
          "logIndex": "0x0",
          "removed": false
        }
      ],
      "status": "0x1",
      "logsBloom": "0x0000000000000020000000000000000040000000000000000000000000000000000000000000000000000000000000200000000000000000000000000000000000000000000000000000000000000200000000000000000000000000000000000000000000000000000000000000000000000000000000000001000000000000000000000000000000000000000000000000000000000000000000000000000000000000000000000000000000000010000000000000000000000000000000000000002000000000000000000000000000000000000000000000000000000000000000000000000000000000000000000c000000000000000000000000000000"
    },
    {
      "transactionHash": "0x7036162a6d9eafd7db07ea582f42dcef40c6ece6d09cad4f77b4639eb64371d6",
      "transactionIndex": "0x0",
      "blockHash": "0x53516732e4a5c507e78d0858d04230db8238c2b6fdd5f7c09a51d516dd1655d9",
      "blockNumber": "0x186dcfc",
      "from": "0x2C10aC0E6B6c1619F4976b2ba559135BFeF53c5E",
      "to": "0x52671440732589E3027517E22c49ABc04941CF2F",
      "cumulativeGasUsed": "0x98de",
      "gasUsed": "0x98de",
      "contractAddress": null,
      "logs": [
        {
          "address": "0x52671440732589E3027517E22c49ABc04941CF2F",
          "topics": [
            "0xbc7cd75a20ee27fd9adebab32041f755214dbc6bffa90cc0225b39da2e5c2d3b",
            "0x0000000000000000000000000d5d900ee9b801e3c32ed9d9ed6fe1ec994f692f"
          ],
          "data": "0x",
          "blockHash": "0x53516732e4a5c507e78d0858d04230db8238c2b6fdd5f7c09a51d516dd1655d9",
          "blockNumber": "0x186dcfc",
          "transactionHash": "0x7036162a6d9eafd7db07ea582f42dcef40c6ece6d09cad4f77b4639eb64371d6",
          "transactionIndex": "0x0",
          "logIndex": "0x0",
          "removed": false
        }
      ],
      "status": "0x1",
      "logsBloom": "0x0000000000000020000000000000000040000000000000000000000000000000000000000000000000000000000000200000000000000000000000000000000000000000000000000000000000000200000000000400000000000000000000000000000000000000000000000000000000000000000000000000000000000000000000000000000000000000000000000000000000040000000000000000000000000000000000000000000000000000000000000000000000000000000000000000002000000000000000000000000000000000000000000000000000000000000000000000000000000000000000000a000000000000000000000000000000"
    },
    {
      "transactionHash": "0xbb6a44d8d341f56dec41860582b53e482a80c2d21a4ad6d1c4e27da616710da2",
      "transactionIndex": "0x0",
      "blockHash": "0x02938f5ad89fa7897c4238a693b39118abb85c06f856384d5229d6e5deffea8c",
      "blockNumber": "0x186dd01",
      "from": "0x2C10aC0E6B6c1619F4976b2ba559135BFeF53c5E",
      "to": "0x3BD8d78d77dfA391c5F73c10aDeaAdD9a7f7198C",
      "cumulativeGasUsed": "0x98de",
      "gasUsed": "0x98de",
      "contractAddress": null,
      "logs": [
        {
          "address": "0x3BD8d78d77dfA391c5F73c10aDeaAdD9a7f7198C",
          "topics": [
            "0xbc7cd75a20ee27fd9adebab32041f755214dbc6bffa90cc0225b39da2e5c2d3b",
            "0x0000000000000000000000000d5d900ee9b801e3c32ed9d9ed6fe1ec994f692f"
          ],
          "data": "0x",
          "blockHash": "0x02938f5ad89fa7897c4238a693b39118abb85c06f856384d5229d6e5deffea8c",
          "blockNumber": "0x186dd01",
          "transactionHash": "0xbb6a44d8d341f56dec41860582b53e482a80c2d21a4ad6d1c4e27da616710da2",
          "transactionIndex": "0x0",
          "logIndex": "0x0",
          "removed": false
        }
      ],
      "status": "0x1",
      "logsBloom": "0x00010000000000200000000000000000400000000000000000000000000000000000000000000000000000000000002000000000000000000000000000000000000000000000000000000000000002000000000000000000000000000000000000000000000000000000000000000000000000000000000000000000000000000000000000040000000000000000000000000000000000000000000000000000000000000000000000000000000000000000000000000000000000000000000000000020000000000000000000000000000000000000000001000000000000000000000000000000000000000000000008000000000000000000000000000000"
    },
    {
      "transactionHash": "0x9071d2d6570a73285a913f7549b47087ad6448cab0ea52953eba39d74f645671",
      "transactionIndex": "0x0",
      "blockHash": "0xda3917592897b03e121ec9ef99027693233cdb26242f803865785170d6463c31",
      "blockNumber": "0x186dd09",
      "from": "0x2C10aC0E6B6c1619F4976b2ba559135BFeF53c5E",
      "to": "0x2510E5054eeEbED40C3C580ae3241F5457b630D9",
      "cumulativeGasUsed": "0x98de",
      "gasUsed": "0x98de",
      "contractAddress": null,
      "logs": [
        {
          "address": "0x2510E5054eeEbED40C3C580ae3241F5457b630D9",
          "topics": [
            "0xbc7cd75a20ee27fd9adebab32041f755214dbc6bffa90cc0225b39da2e5c2d3b",
            "0x0000000000000000000000000d5d900ee9b801e3c32ed9d9ed6fe1ec994f692f"
          ],
          "data": "0x",
          "blockHash": "0xda3917592897b03e121ec9ef99027693233cdb26242f803865785170d6463c31",
          "blockNumber": "0x186dd09",
          "transactionHash": "0x9071d2d6570a73285a913f7549b47087ad6448cab0ea52953eba39d74f645671",
          "transactionIndex": "0x0",
          "logIndex": "0x0",
          "removed": false
        }
      ],
      "status": "0x1",
      "logsBloom": "0x00000000000000200000000000000000400000000000800000000000000000000000000000000000000000000000002000000000000000000000000000000000000000000000000000000000010002000000000000000000000000000000000000000000000000000000000000000000000000000000000000000000000000000000000000000000000000000000000000000000000000000000000000000000000000000000000000000000000000000000000000000000000000000000000000000020000000000000000000080000000000000000000000000000000000000000000000000000000000000000000008000000000000000000000000000000"
    },
    {
      "transactionHash": "0xaaa8d4e54cd4e25de9db90f76b06a2afd0cbc2fd8a9a71e111db387f81ef94ba",
      "transactionIndex": "0x0",
      "blockHash": "0x23491217c62c86fa2f0ae77774f5ab0e0aeafbc86bc88819542bbe943800aa78",
      "blockNumber": "0x186dd10",
      "from": "0x2C10aC0E6B6c1619F4976b2ba559135BFeF53c5E",
      "to": "0xFAcB839BF8f09f2e7B4b6C83349B5bbFD62fd659",
      "cumulativeGasUsed": "0x98de",
      "gasUsed": "0x98de",
      "contractAddress": null,
      "logs": [
        {
          "address": "0xFAcB839BF8f09f2e7B4b6C83349B5bbFD62fd659",
          "topics": [
            "0xbc7cd75a20ee27fd9adebab32041f755214dbc6bffa90cc0225b39da2e5c2d3b",
            "0x0000000000000000000000000d5d900ee9b801e3c32ed9d9ed6fe1ec994f692f"
          ],
          "data": "0x",
          "blockHash": "0x23491217c62c86fa2f0ae77774f5ab0e0aeafbc86bc88819542bbe943800aa78",
          "blockNumber": "0x186dd10",
          "transactionHash": "0xaaa8d4e54cd4e25de9db90f76b06a2afd0cbc2fd8a9a71e111db387f81ef94ba",
          "transactionIndex": "0x0",
          "logIndex": "0x0",
          "removed": false
        }
      ],
      "status": "0x1",
      "logsBloom": "0x00000000000000200000000000000000400000000010000000000000000000000000000000000000000000000000002000000000000000000000000000000000000000000000000000000000000002000000000000000000000000000000000000000000000000000000000000000000000000000000000000000000000000000000000000000000000000000000000000000000000000000000000080000000000000000000000000000000040000000000000000000000000000000000000000000020000000000000000000000000000000000000000000000000000000000000000000000000000000000000000008000000000000000000000000000000"
    },
    {
      "transactionHash": "0x02e018451adcc381dee3f6e7324490da6a8120136bae6b551a1baf1800ee3c06",
      "transactionIndex": "0x0",
      "blockHash": "0x76e9611965c9225c19b10c8360a9c6dc0b7ba6defc295c1ea845de25c0397c52",
      "blockNumber": "0x186dd1a",
      "from": "0x2C10aC0E6B6c1619F4976b2ba559135BFeF53c5E",
      "to": "0x176CC5Ff9BDBf4daFB955003E6f8229f47Ef1E55",
      "cumulativeGasUsed": "0x98de",
      "gasUsed": "0x98de",
      "contractAddress": null,
      "logs": [
        {
          "address": "0x176CC5Ff9BDBf4daFB955003E6f8229f47Ef1E55",
          "topics": [
            "0xbc7cd75a20ee27fd9adebab32041f755214dbc6bffa90cc0225b39da2e5c2d3b",
            "0x0000000000000000000000000d5d900ee9b801e3c32ed9d9ed6fe1ec994f692f"
          ],
          "data": "0x",
          "blockHash": "0x76e9611965c9225c19b10c8360a9c6dc0b7ba6defc295c1ea845de25c0397c52",
          "blockNumber": "0x186dd1a",
          "transactionHash": "0x02e018451adcc381dee3f6e7324490da6a8120136bae6b551a1baf1800ee3c06",
          "transactionIndex": "0x0",
          "logIndex": "0x0",
          "removed": false
        }
      ],
      "status": "0x1",
      "logsBloom": "0x00000000000000200000000000000000400000000000000000000000000000000000000000000000000000000000002000000000000000000000000000000000000000000000000000000000000002000000000000000000000000000000000000000000002000000000000000000000000000000000000000000000000000000000000000000000000080000000000000000000000000000000000000000000000000000000000000000000000000000000000000000000000000000000000000000020000000000000000000000000000000000000000000000000000000000000000000000002000000000000000008000000000000000000000000000000"
    },
    {
      "transactionHash": "0xfd545337290c9b75fc6c522d5aee12592a9c240d330f595447c1f69c7d5c1734",
      "transactionIndex": "0x0",
      "blockHash": "0x304d3fd1f2b43769bb4eaf28fd0712212d2ad13ed85e245401e75c6fe779b117",
      "blockNumber": "0x186dd26",
      "from": "0x2C10aC0E6B6c1619F4976b2ba559135BFeF53c5E",
      "to": "0xa0Ea9A553cB47658e62Dee4D7b49F7c8Da234B69",
      "cumulativeGasUsed": "0x98de",
      "gasUsed": "0x98de",
      "contractAddress": null,
      "logs": [
        {
          "address": "0xa0Ea9A553cB47658e62Dee4D7b49F7c8Da234B69",
          "topics": [
            "0xbc7cd75a20ee27fd9adebab32041f755214dbc6bffa90cc0225b39da2e5c2d3b",
            "0x0000000000000000000000000d5d900ee9b801e3c32ed9d9ed6fe1ec994f692f"
          ],
          "data": "0x",
          "blockHash": "0x304d3fd1f2b43769bb4eaf28fd0712212d2ad13ed85e245401e75c6fe779b117",
          "blockNumber": "0x186dd26",
          "transactionHash": "0xfd545337290c9b75fc6c522d5aee12592a9c240d330f595447c1f69c7d5c1734",
          "transactionIndex": "0x0",
          "logIndex": "0x0",
          "removed": false
        }
      ],
      "status": "0x1",
      "logsBloom": "0x00000000000000200000000000000000400000000000000000000000000000000000000000000000000000000000002800000000000000000000000040000000000000000000000000000000000002000000000000000000000000000000000000000000100000000000000000000000000000000000000000000000000000000000000000000000000000000000000000000000000000000000000000000000000000000000000000000000000000000000000000000000000000000000000000000020000000000000000000000000000000000000000000000000000000000000000000000000000000000000000008000000000000000000000000000000"
    },
    {
      "transactionHash": "0xb15bf6b7fb984f4218e19af775add69b544810cfac0b26097d381f5c25cb8337",
      "transactionIndex": "0x0",
      "blockHash": "0xff860d844a22a364f63a9328e16c2f9a4698298985715f2504fff9335b6a3c4e",
      "blockNumber": "0x186dd32",
      "from": "0x2C10aC0E6B6c1619F4976b2ba559135BFeF53c5E",
      "to": "0xd0f9990a611018b5b30BFE1C5433bf5bba2a9868",
      "cumulativeGasUsed": "0x98de",
      "gasUsed": "0x98de",
      "contractAddress": null,
      "logs": [
        {
          "address": "0xd0f9990a611018b5b30BFE1C5433bf5bba2a9868",
          "topics": [
            "0xbc7cd75a20ee27fd9adebab32041f755214dbc6bffa90cc0225b39da2e5c2d3b",
            "0x0000000000000000000000000d5d900ee9b801e3c32ed9d9ed6fe1ec994f692f"
          ],
          "data": "0x",
          "blockHash": "0xff860d844a22a364f63a9328e16c2f9a4698298985715f2504fff9335b6a3c4e",
          "blockNumber": "0x186dd32",
          "transactionHash": "0xb15bf6b7fb984f4218e19af775add69b544810cfac0b26097d381f5c25cb8337",
          "transactionIndex": "0x0",
          "logIndex": "0x0",
          "removed": false
        }
      ],
      "status": "0x1",
      "logsBloom": "0x00000000000000200000000000000000400000000000000000000000000000000000000000000000000000000000002000000000000000000000000100000000000000000000000000000000000002000000000000000000000000000000000000000000000000000000000000000000000000000040000000000000000000000000000000000000000000000000000000000000000000000000000000000000000000000000000000000000000000000000000000000000100000000000000000000020000000000000000000000000000000000000000000000000000000000000000000000000000000000000000008000000000000000000000000000000"
    },
    {
      "transactionHash": "0xcd7c87a91a8b0ab0ae5e90b2331f9693575e011fd4b07b4a69dc78f55658ede4",
      "transactionIndex": "0x0",
      "blockHash": "0x9088168ab6ea89c25ea69d7d0a017c4d417572ed2ca881dca135a313d180aab6",
      "blockNumber": "0x186dd3c",
      "from": "0x2C10aC0E6B6c1619F4976b2ba559135BFeF53c5E",
      "to": "0x0F0fFF5EA56b0eA2246A926F13181e33Be9FbAEA",
      "cumulativeGasUsed": "0x98de",
      "gasUsed": "0x98de",
      "contractAddress": null,
      "logs": [
        {
          "address": "0x0F0fFF5EA56b0eA2246A926F13181e33Be9FbAEA",
          "topics": [
            "0xbc7cd75a20ee27fd9adebab32041f755214dbc6bffa90cc0225b39da2e5c2d3b",
            "0x0000000000000000000000000d5d900ee9b801e3c32ed9d9ed6fe1ec994f692f"
          ],
          "data": "0x",
          "blockHash": "0x9088168ab6ea89c25ea69d7d0a017c4d417572ed2ca881dca135a313d180aab6",
          "blockNumber": "0x186dd3c",
          "transactionHash": "0xcd7c87a91a8b0ab0ae5e90b2331f9693575e011fd4b07b4a69dc78f55658ede4",
          "transactionIndex": "0x0",
          "logIndex": "0x0",
          "removed": false
        }
      ],
      "status": "0x1",
      "logsBloom": "0x00000000000000200000000000000000400000004000000000000000000000000000000000000000000000000000002000000000000000000000000000000000000000000000000000000000000002000000000000000000000000000000000000000000000000000000000000000000000000000000000000000000000000000000000000000000000000000000000000000000000000000000000000000000000000000000000000000000000000000000000000000000000000000000000000000020000000000000000000000000000000000000000000000000000000000000000000000000000000000000040008000000000080000000000000000000"
    },
    {
      "transactionHash": "0x409c2fb72327d64819704317d6410f7b6ef3a6eb24723dc30c6da4675354b6da",
      "transactionIndex": "0x0",
      "blockHash": "0x163e7202ec970b964b1068545b176ec212ad16fbeb23c351c693fad68e62d80f",
      "blockNumber": "0x186dd44",
      "from": "0x2C10aC0E6B6c1619F4976b2ba559135BFeF53c5E",
      "to": "0xcba7864134e1A5326b817676ad5302A009c84d68",
      "cumulativeGasUsed": "0x98de",
      "gasUsed": "0x98de",
      "contractAddress": null,
      "logs": [
        {
          "address": "0xcba7864134e1A5326b817676ad5302A009c84d68",
          "topics": [
            "0xbc7cd75a20ee27fd9adebab32041f755214dbc6bffa90cc0225b39da2e5c2d3b",
            "0x0000000000000000000000000d5d900ee9b801e3c32ed9d9ed6fe1ec994f692f"
          ],
          "data": "0x",
          "blockHash": "0x163e7202ec970b964b1068545b176ec212ad16fbeb23c351c693fad68e62d80f",
          "blockNumber": "0x186dd44",
          "transactionHash": "0x409c2fb72327d64819704317d6410f7b6ef3a6eb24723dc30c6da4675354b6da",
          "transactionIndex": "0x0",
          "logIndex": "0x0",
          "removed": false
        }
      ],
      "status": "0x1",
      "logsBloom": "0x00000000000000200000000000000000400000000000000000000000000000000000000000000000000000000000002000000000000000000000000000000000000004000000000000000000000002000000000000000000000000000000000000000000000000000000000000000000000000000400000000000000000000000000000000000000000000000000000000000000000000000000000000000000000000000000000000000000000000000000000000000000000000000000000000000020008000000000000000000000000000000000000000000000000000000000000000000000000000000000000008000000000000000000000000000000"
    }
  ],
  "libraries": [],
  "pending": [],
  "path": "/Users/siew/PowerbombFinance/powerbomb-foundry/broadcast/Upgrade.sol/10/run-latest.json",
  "returns": {},
  "timestamp": 1664216273,
  "commit": "8b5cd1b"
}